:100000000C9443000C946B000C946B000C946B00EC
:100010000C946B000C946B000C946B000C946B00B4
:100020000C946B000C94C5110C94EE110C941712E7
:100030000C94BB120C9440120C9469120C94921202
:100040000C944A110C9473110C949C110C946B0039
:100050000C941E0B0C94D1080C946B000C946B0048
:100060000C946B000C946B000C946B000C946B0064
:100070000C94F30A0C941F090C946B000201DA0231
:10008000490B4814030311241FBECFEFD0E1DEBF9C
:10009000CDBF11E0A0E0B1E0E4E2F2E302C00590E0
:1000A0000D92A23CB107D9F713E0A2ECB1E001C078
:1000B0001D92AB3AB107E1F710E0C4E8D0E004C00C
:1000C0002297FE010E94EF15CE37D107C9F70E9493
:1000D00018080C9405190C94000089EC91E00E941A
:1000E000120F8AE692E00E94120F83E692E00E94CD
:1000F000120F8BE592E00C94120F5F926F927F9239
:100100008F929F92AF92BF92CF92DF92EF92FF9227
:100110000F931F93CF93DF93CDB7DEB727970FB61B
:10012000F894DEBF0FBECDBF3C0193E1A92EB12CE8
:10013000E12CF12C03E010E0B70181E792E00E948E
:100140006505C82ED12C2BC0C0FC05C00E5F1F4F0B
:10015000D594C79424C0B80181E792E00E94650558
:10016000582EB8016F5F7F4F81E792E00E946505CE
:10017000982E812CB401650D711D4AE0CE010196C7
:100180000E94DB0FB301CE0101960E949810582EF9
:10019000CE0101960E94120F5520C1F211C0C11468
:1001A000D10491F68FEFE81AF80A850180E1A80ED4
:1001B000B11C83E0E816F10409F0BECF80E001C075
:1001C00081E027960FB6F894DEBF0FBECDBFDF915A
:1001D000CF911F910F91FF90EF90DF90CF90BF9044
:1001E000AF909F908F907F906F905F900895CF9287
:1001F000DF92EF92FF920F931F93CF93DF93CDB7D0
:10020000DEB76C01CB01EDB6FEB6FB014481558132
:100210004F5F5F4F2DB73EB7241B350B0FB6F894D9
:100220003EBF0FBE2DBF0DB71EB70F5F1F4F20E0A3
:1002300030E0B8010E94EC1064E271E0C8010E9455
:100240001E1886010CC0BC01C8010E94C10F64E2E7
:1002500071E080E090E00E941E18095F1F4F009738
:1002600091F70FB6F894FEBE0FBEEDBEDF91CF91B1
:100270001F910F91FF90EF90DF90CF9008950F9313
:100280001F93CF93DF938C01EB0160E071E00E943C
:100290007B15BE01660F771F6D5F7F4F482F81E78B
:1002A00092E00E946805A80117FF02C041505F4F0D
:1002B000452F550F550BBE016E5F7F4F660F771FA1
:1002C00081E792E00E9468058E01D7FF02C0095FB6
:1002D0001F4F23E0159507952A95E1F71127B801DF
:1002E00081E792E00E946505482FCE0168E070E04A
:1002F0000E947B1521E030E001C0220F8A95EAF7C9
:10030000422BB80181E792E0DF91CF911F910F91CD
:100310000C9468050F931F93CF93DF938C01EB012F
:1003200060E071E00E947B15BE01660F771F6D5F74
:100330007F4F482F81E792E00E946805A80117FFD0
:1003400002C041505F4F452F550F550BBE016E5FE8
:100350007F4F660F771F81E792E0DF91CF911F916A
:100360000F910C9468050F931F93CF93DF938C012B
:10037000EC0197FD279683E0D595C7958A95E1F71F
:10038000DD27BE0181E792E00E946505482FC80184
:1003900068E070E00E947B1521E030E001C0220F90
:1003A0008A95EAF74227BE0181E792E0DF91CF917B
:1003B0001F910F910C94680540E060E070E081E7C8
:1003C00092E00E94680540E061E070E081E792E021
:1003D0000E94680540E062E070E081E792E00C94E2
:1003E00068058F929F92AF92BF92CF92DF92EF9269
:1003F000FF92CF93DF93CDB7DEB76C970FB6F8942B
:10040000DEBF0FBECDBF80916202882309F472C0A7
:100410006FE671E0CE0101960E94830F6FE671E0F6
:10042000CE0108960E94830F6FE671E0CE010F9611
:100430000E94830F6BE572E0CE0146960E94B70FD3
:10044000BE016A5E7F4FCE0101960E94F700CE0189
:1004500046960E94120FCE0108960E9416114B017B
:100460005C01CE010F960E9416116B017C0166E2C1
:1004700071E0CE0101960E94A910882329F0B601EF
:10048000C4010E943F0122C063E371E0CE010196E6
:100490000E94A910882329F0B601C4010E948A0194
:1004A00015C063E471E0CE0101960E94A910882373
:1004B00021F0C6010E94B30109C06FE471E0CE01D2
:1004C00001960E94A91081110E94DC016FE671E083
:1004D0008BE592E00E94C10F10926202CE010F964E
:1004E0000E94120FCE0108960E94120FCE010196B3
:1004F0000E94120F6C960FB6F894DEBF0FBECDBFF0
:10050000DF91CF91FF90EF90DF90CF90BF90AF90B1
:100510009F908F9008950F931F93CF93DF93EB01DC
:100520008A0142E0BC018BE00E94530B42E0BE0115
:1005300089E00E94530B42E0B8018DE0DF91CF913A
:100540001F910F910C94530BEF920F93E12C01E04C
:1005500028E040E855E260E070E087ED92E00E941C
:10056000F1096FE671E089EC91E00E94C10F1092F1
:10057000C8011092C7011092C6011092F6013B9A71
:10058000399A3D9A3C9840E050E06FEF70E08FEF71
:1005900090E00E948B0261E0809108010E94980720
:1005A00060E0809106010E9498073F9A50980F9151
:1005B000EF900895EF920F936FE671E08BE592E074
:1005C0000E94830F6AE571E083E692E00E94830F48
:1005D0006FE571E08AE692E00E94830F93E0E92ED6
:1005E00004E02AE031E04DE051E061E171E080EDAE
:1005F00091E00E94CC066FE671E089EC91E00F91EA
:10060000EF900C94830F0C946D00CF93DF93D1E0A7
:1006100018C087ED92E00E944A08C82F682F8BE52A
:1006200092E00E945410CA3061F420E030E044E6C9
:1006300050E067EF71E08BE592E00E94EC10D09300
:10064000620287ED92E00E941F08892B11F7DF916B
:10065000CF9108950F931F93CF93DF93CDB7DEB75C
:1006600027970FB6F894DEBF0FBECDBF809106016D
:100670000E94C60790E09093C5018093C401019742
:10068000F9F461E0809108010E94EA0764E671E0F4
:1006900087ED92E00E94FE0E20E030E0A90167E8BD
:1006A00070E080911D010E94190D64EF71E080E0FF
:1006B00090E00E94760780911D010E94E80C05C021
:1006C00060E0809108010E94EA078091C6018111D3
:1006D00007C080ED91E00E948205882391F001C05F
:1006E000FFCF682FCE0101960E940810BE016F5FF8
:1006F0007F4F89EC91E00E944D10CE0101960E943F
:10070000120F8091C801882329F16CE671E0CE01B7
:1007100001960E94830FBE016F5F7F4F89EC91E0CD
:100720000E94CB10182FCE0101960E94120F1123A8
:1007300089F01092C80140E050E06FEF70E08FEF59
:1007400090E00E948B0242986FE671E089EC91E0A4
:100750000E94C10F6EE671E0CE0101960E94830FE8
:10076000BE016F5F7F4F89EC91E00E94CB10882320
:1007700061F011E02091CD013091CE0180916702AE
:10078000909168028217930708F410E0CE01019659
:100790000E94120F112331F06FE671E089EC91E0B5
:1007A0000E94C10F8091C8018823A1F00E946407B4
:1007B0000091F2011091F3012091F4013091F501C3
:1007C000601B710B820B930B68397A43810591058D
:1007D00008F04EC12091CD013091CE018091670289
:1007E000909168022817390709F065C069EC71E03B
:1007F000CE0101960E94B70FCE0101960E947D00A6
:10080000882321F011E08091C801811110E0CE0110
:1008100001960E94120F112361F1429A81E08093A8
:10082000C8010E9464076093F2017093F301809302
:10083000F4019093F5014FEF50E060E070E08FEF2E
:1008400090E00E948B0220E030E0A90160E971E0B5
:1008500080911D010E94190D68EE73E080E090E028
:100860000E94760780911D010E94E80C1092C7013A
:1008700022C08091C7018F5F8093C7016FE671E04E
:1008800089EC91E00E94C10F8091C701882399F003
:1008900020E030E0A90167E870E080911D010E942E
:1008A000190D68EE73E080E090E00E947607809179
:1008B0001D010E94E80C8091C701833020F16FE692
:1008C00071E089EC91E00E94C10F1092C70160E7CE
:1008D00071E087ED92E00E94FE0E4FEF50E06FEF67
:1008E00070E080E090E00E948B0260E375E780E0BA
:1008F00090E00E94760740E050E06FEF70E08FEFED
:1009000090E00E948B028091F60181111CC0349B03
:100910005DC00E9464076093F2017093F3018093BD
:10092000F4019093F50111E01093F6014FEF50E0C0
:1009300060E070E08FEF90E00E948B021093C8019E
:100940001092C70143C0349B35C00E9464070091D8
:10095000F2011091F3012091F4013091F501601B37
:10096000710B820B930B603177428105910570F119
:100970004FEF50E06FEF70E080E090E00E948B025C
:1009800020E030E0A90167E870E080911D010E943D
:10099000190D68EE73E080E090E00E947607809188
:1009A0001D010E94E80C68E771E087ED92E00E946B
:1009B000FE0E0CC040E050E06FEF70E08FEF90E073
:1009C0000E948B021092C8011092F60180E00E94F2
:1009D000FF06BC01882777FD8095982F0E945D1443
:1009E0002DEC3CEC4CEA50E40E940D1520E030E088
:1009F00040E85AE30E940D15FB01462F5F2F682F38
:100A0000792F4093EE015093EF016093F0017093C2
:100A1000F10120E030E0A901BF010E94571418162F
:100A2000DCF0479A60E871E087ED92E00E94FE0EEC
:100A300020E030E0A90167E870E080911D010E948C
:100A4000190D60E971E080E090E00E9476078091E6
:100A50001D010E94E80C01C047980E9405030E94F6
:100A6000F10164E670E080E090E00E94760722C029
:100A70004FEF50E06FEF70E080E090E00E948B025B
:100A800068E771E087ED92E00E94FE0E20E030E022
:100A9000A90167E870E080911D010E94190D68ECC2
:100AA00070E080E090E00E94760780911D010E9436
:100AB000E80C90CE27960FB6F894DEBF0FBECDBFE0
:100AC000DF91CF911F910F910895CB010C94A8183D
:100AD000CB01642F0C94B018DC0118968D919C9179
:100AE00019978617970769F019967C936E93189754
:100AF0005C96ED91FC915D97309719F01A968C9168
:100B0000099408954F925F926F927F92AF92BF9235
:100B1000CF92DF92EF92FF920F931F93CF93DF93C9
:100B2000EC01A12CA8C00A2D10E0EC81FD81E00FA2
:100B3000F11F60E080810E94EA07B12C68018EC03D
:100B4000EB2CF12C8F81E881F981EC0DFD1DB89E15
:100B5000E00DF11D11249A85808198133CC00E94FC
:100B600064074E845F8468887988641975098609EA
:100B700097094A8C5B8C612C712C64157505860570
:100B8000970550F0EA81FB81EE0DFF1D80810E94E8
:100B9000C607882309F498C00E9464074E845F84C6
:100BA000688879886419750986099709488C598C71
:100BB000612C712C641575058605970508F493C0A2
:100BC000EA81FB81EB0DF11D80810E94C607813017
:100BD00009F089C07FC00E9464074E845F846888E2
:100BE00079886419750986099709488C598C612C94
:100BF000712C641575058605970578F1EA81FB81EE
:100C0000EE0DFF1D80810E94C607811126C0EC8178
:100C1000FD81E00FF11F61E080810E94EA072F81D2
:100C20002E9DC0012F9D900D1124E881F981EC0DBE
:100C3000FD1DE80FF91FF0808E859F85A889B98971
:100C40008A8B9B8BAC8BBD8B0E9464076E877F87E2
:100C5000888B998BF11015C005C0B3948E81B8169E
:100C600008F46ECFEC81FD81E00FF11F61E080811F
:100C70000E94EA07A3948F81A81608F454CF80E05D
:100C800040C08B85F81239C00E9464070A891B890D
:100C90002C893D89601B710B820B930B0E891F8978
:100CA00020E030E0061717072807390710F525C0A0
:100CB00081E090E09D878C87FA8661E070E0CE014C
:100CC0000E946C058A851DC063E070E0CE010E9421
:100CD0006C0562CF62E070E0CE010E946C058A85EF
:100CE0008B871A86BFCF88859985039709F0B5CF82
:100CF000B9CF8C859D850196DDCF8A85F812D8CF36
:100D0000BECFDF91CF911F910F91FF90EF90DF90B9
:100D1000CF90BF90AF907F906F905F904F9008956D
:100D2000FF920F931F93CF93DF93EC01F12C13C02D
:100D30000F2D10E0EA81FB81E00FF11F60E0808160
:100D40000E949807EA81FB81E00FF11F61E080813A
:100D50000E94EA07F3948E81F81650F3F12C13C029
:100D60000F2D10E0EC81FD81E00FF11F61E080812B
:100D70000E949807EC81FD81E00FF11F61E0808106
:100D80000E94EA07F3948F81F81650F3DF91CF9118
:100D90001F910F91FF900895EF920F93FC015383E1
:100DA0004283358324830683E782718360831686BA
:100DB0001786108A118A128A138A148A158A8CE27D
:100DC00091E0978B868B82E390E0918F808F88EE05
:100DD00093E0938F828F158E148E12861386118660
:100DE000108615861486CF010F91EF900C94900613
:100DF00080E480937C0087E880937A000895CF9305
:100E0000DF931F92CDB7DEB790911F01913031F47F
:100E100089830E94F80610921F01898187702091B2
:100E2000200140E4249F90011124822B80937C00B8
:100E300080917A00806480937A0080917A0086FDA8
:100E4000FCCF2091780030917900932F80E0FC0155
:100E5000E22B9F01C9010F90DF91CF9108958091FE
:100E6000730290917402A0917502B0917602309154
:100E70007202232F2D5F2D3720F40196A11DB11D85
:100E800005C0232F2A570296A11DB11D209372027F
:100E90008093730290937402A0937502B0937602CC
:100EA0008091770290917802A0917902B0917A02B4
:100EB0000196A11DB11D8093770290937802A093B3
:100EC0007902B0937A0208950F931F938FB7F89425
:100ED0000091730210917402209175023091760294
:100EE0008FBFB801C9011F910F9108958F929F92F2
:100EF000AF92BF92CF92DF92EF92FF926B017C0193
:100F00000E9464074B015C010E946407681979091B
:100F10008A099B096C157D058E059F05A8F3FF9036
:100F2000EF90DF90CF90BF90AF909F908F900895FB
:100F3000982F977021E030E0092E01C0220F0A940B
:100F4000EAF786958695869581F0813089F0823022
:100F500091F08330D1F412C080812095822302C0A9
:100F60008081822B80839FBF0895EAE2F0E008C071
:100F7000E7E2F0E005C0E4E2F0E002C0E1E2F0E028
:100F80009FB7F894662341F3EBCF0895982F97709D
:100F900021E030E001C0220F9A95EAF78695869508
:100FA000869539F0813041F0823049F0833051F03C
:100FB0000895E9E2F0E008C0E6E2F0E005C0E3E20F
:100FC000F0E002C0E0E2F0E09081922381E009F4D9
:100FD00080E00895982F977021E030E0092E01C03D
:100FE000220F0A94EAF786958695869581F08130DE
:100FF00089F0823091F08330D1F412C08081209545
:10100000822302C08081822B80839FBF0895EBE200
:10101000F0E008C0E8E2F0E005C0E5E2F0E002C080
:10102000E2E2F0E09FB7F894662341F3EBCF089536
:101030000E9422110E94A4020E942A03FDCFFC01FB
:1010400020893189C9010895DC0150962D913C9188
:101050005197232B49F05496ED91FC915597E80F49
:10106000F91F268930E002C02FEF3FEFC901089534
:10107000FC01118A108A158A148A138A128A08952B
:10108000FC0124813581C9010895FC012481358149
:10109000C9010895FC0180899189892BD1F03FB75E
:1010A000F894808991890197918B808B84899589A7
:1010B000DF01A80FB91F56962C9101968032910539
:1010C0001CF4958B848B02C0158A148A3FBF30E0D4
:1010D00002C02FEF3FEFC9010895EF92FF921F93D7
:1010E000CF93DF931F92CDB7DEB77C01D701DA969D
:1010F0008D919C91DB974097C8F71FB7F894D696CF
:10110000ED91FC91D7970190F081E02DC701C69633
:101110006983099569814097C8F4F70182AD93AD61
:10112000019693AF82AF84AD95ADE80FF91FE05CF7
:10113000FF4F60830196D701DD969C938E93DC97D9
:10114000409724F0DD961C921E92DC97F701EA5A34
:10115000FF4F0190F081E02D8081806280831FBF6E
:1011600081E090E00F90DF91CF911F91FF90EF9081
:101170000895665F7F4F680F791FCB010895665F02
:101180007F4F680F791FCB010895665F7F4F680F0F
:10119000791FCB010895665F7F4F680F791FCB01E0
:1011A00008951F920F920FB60F9211242F938F93D1
:1011B0009F93AF93BF93EF93FF938091110390910F
:1011C0001203892B21F1E0913103F09132038091D8
:1011D00011039091120301979093120380931103CE
:1011E0008091150390911603DC01A35FBC4F1A9602
:1011F0002C910196803191052CF4909316038093E5
:10120000150304C0109216031092150320838091D9
:10121000110390911203892B31F4E0912D03F09189
:101220002E0388E98083FF91EF91BF91AF919F9149
:101230008F912F910F900FBE0F901F9018951F92B6
:101240000F920FB60F9211242F938F939F93AF930A
:10125000BF93EF93FF938091B5029091B602892BD3
:1012600021F1E091D502F091D6028091B5029091E2
:10127000B60201979093B6028093B5028091B902AD
:101280009091BA02DC01AF54BD4F1A962C91019691
:10129000803191052CF49093BA028093B90204C076
:1012A0001092BA021092B90220838091B5029091F7
:1012B000B602892B31F4E091D102F091D20288E993
:1012C0008083FF91EF91BF91AF919F918F912F916B
:1012D0000F900FBE0F901F901895FC01262F1382C0
:1012E000128248EE53E060E070E0448355836683E9
:1012F00077838CE891E0918380838CE991E09587F6
:10130000848780E290E097878687118A108A158A01
:10131000148A138A128A86EA91E097AB86AB80E141
:1013200090E091AF80AF13AE12AE17AE16AE15AE11
:1013300014AE222321F0213009F052C028C0DF0171
:10134000A05BBF4F85EC90E08D939C93DF01AE5A7C
:10135000BF4F84EC90E08D939C93DF01AC5ABF4F5C
:1013600080EC90E08D939C93DF01AA5ABF4F81ECF3
:1013700090E08D939C93DF01A85ABF4F82EC90E0E0
:101380008D939C93E65AFF4F86EC90E027C0DF01D7
:10139000A05BBF4F8DEC90E08D939C93DF01AE5A24
:1013A000BF4F8CEC90E08D939C93DF01AC5ABF4F04
:1013B00088EC90E08D939C93DF01AA5ABF4F89EC93
:1013C00090E08D939C93DF01A85ABF4F8AEC90E088
:1013D0008D939C93E65AFF4F8EEC90E0918380832F
:1013E00008953F924F925F926F927F928F929F9259
:1013F000AF92BF92CF92DF92EF92FF920F931F9323
:10140000CF93DF93EC014A015B01122F3E2C60E089
:1014100072E18AE790E0A50194010E948F156901AD
:101420007A0184E0C80ED11CE11CF11C83E0F69423
:10143000E794D794C7948A95D1F760E074E284EF7B
:1014400090E0A50194010E948F1529013A0194E0D2
:10145000490E511C611C711C93E07694679457945B
:1014600047949A95D1F7A30192014427552760E844
:1014700074E88EE190E00E94B1155901A818B908EE
:10148000B7FE03C0B194A194B108A7019601442707
:10149000552760E472E48FE090E00E94B1152819AE
:1014A000390937FF03C0319521953109FE01EC5A06
:1014B000FF4F0190F081E02DA216B3063CF482E0CC
:1014C0008083620181E0C81AD10804C0108291E0D3
:1014D000C91AD1081630C1F018F4153099F405C0B6
:1014E000173029F0193071F404C080E00EC084E098
:1014F0000CC0FE01EA5AFF4F0190F081E02D80817F
:101500008460808386E001C082E0023009F4886054
:1015100091E0391621F092E0391204C002C08063D4
:1015200001C08062FE01E85AFF4F0190F081E02D7A
:101530008083FE01E05BFF4F0190F081E02DD082BF
:10154000FE01EE5AFF4F0190F081E02DC082CA5A91
:10155000DF4FE881F98188E98083DF91CF911F9186
:101560000F91FF90EF90DF90CF90BF90AF909F9042
:101570008F907F906F905F904F903F9008950F9362
:101580001F93CF93DF931F92CDB7DEB78C01DC01A1
:10159000ED91FC910190F081E02D698309956981BD
:1015A0008097D0F4F8018481958101969583848396
:1015B00086819781E80FF91F628701968032910535
:1015C00034F4D80117969C938E93169703C0F801B4
:1015D0001782168281E001C080E00F90DF91CF91E9
:1015E0001F910F9108951F920F920FB60F92112421
:1015F0002F933F934F935F936F937F938F939F931B
:10160000AF93BF93EF93FF93E091D502F091D60291
:10161000608187E892E00E94BF0AFF91EF91BF913D
:10162000AF919F918F917F916F915F914F913F917A
:101630002F910F900FBE0F901F9018951F920F9231
:101640000FB60F9211242F933F934F935F936F9395
:101650007F938F939F93AF93BF93EF93FF93E0910B
:101660003103F0913203608183EE92E00E94BF0A61
:10167000FF91EF91BF91AF919F918F917F916F916A
:101680005F914F913F912F910F900FBE0F901F9040
:10169000189560E087ED92E00E946D0961E08BE7AC
:1016A00092E00C946D091F93CF93DF93182FEB01F9
:1016B000209721F460E00E94EA0740E0143079F1BD
:1016C000153029F11630E9F1173099F1133169F02D
:1016D000143109F044C011C060E001C061E0812F05
:1016E000DF91CF911F910C94EA0760E085E893E0C9
:1016F0000E94F713AE0160E007C061E085E893E067
:101700000E94F713AE0161E085E893E023C060E03A
:1017100083E693E00E94F713AE0160E007C061E04A
:1017200083E693E00E94F713AE0161E083E693E065
:1017300011C060E081E493E00E94F713AE0160E025
:1017400007C061E081E493E00E94F713AE0161E01D
:1017500081E493E0DF91CF911F910C942414C03861
:10176000D10508F4B9CFBACF8091360390913703F1
:10177000A0913803B0913903892B8A2B8B2B51F11F
:1017800090913303E0913403F091350380818927F0
:1017900080838091360390913703A0913803B091F4
:1017A0003903181619061A061B0644F580913603EC
:1017B00090913703A0913803B09139030197A109A3
:1017C000B1098093360390933703A0933803B09305
:1017D0003903089540E061E081E493E00E949213B0
:1017E00020913303E0913403F0913503808190E040
:1017F00030E0209530958223932380830895809153
:101800003D0390913E03A0913F03B0914003892B8B
:101810008A2B8B2B51F190913A03E0913B03F0918D
:101820003C0380818927808380913D0390913E0312
:10183000A0913F03B0914003181619061A061B0623
:1018400044F580913D0390913E03A0913F03B091F8
:1018500040030197A109B10980933D0390933E0392
:10186000A0933F03B0934003089540E061E083E616
:1018700093E00E94921320913A03E0913B03F09190
:101880003C03808190E030E02095309582239323C3
:10189000808308951F93CF93DF93182F80912101A8
:1018A000A2E2B1E0ED0108C09991911305C0F0E00A
:1018B000E458FF4FC49187C0EC2FEA1BE817A0F350
:1018C00020E030E012C0A9019D912F5F3F4F9F3F64
:1018D00061F4DA01AE5DBE4F1C93F0E0E458FF4FB7
:1018E000C491CF3F31F4CFEF6EC0E22F281758F3E9
:1018F000FACFC13021F0C23009F065C033C064E0D6
:1019000083E693E00E94E11360E083E693E00E94A7
:10191000E412183068F0812F8850883060F08850C9
:10192000883060F08850883060F422E230E00BC0EC
:101930002BE230E008C028E230E005C025E230E0CC
:1019400002C020E030E030933C0320933B0317704B
:1019500021E030E0012E01C0220F0A94EAF7209323
:101960003A0331C062E081E493E00E94E11360E059
:1019700081E493E00E94E412183068F0812F8850CF
:10198000883060F08850883060F08850883060F48B
:1019900022E230E00BC02BE230E008C028E230E069
:1019A00005C025E230E002C020E030E0309335038E
:1019B00020933403177021E030E001C0220F1A9504
:1019C000EAF7209333038C2FDF91CF911F91089575
:1019D000CF93C82F809122018C1307C0ECE7F0E071
:1019E000E4918FEF8093220101C0EFEF80912301FA
:1019F0008C1306C0EDE7F0E0E4918FEF80932301B4
:101A0000E13019F0E23081F407C020E040E050E01E
:101A100061E083E693E006C020E040E050E061E052
:101A200081E493E00E94B71360E08C2FCF910C9477
:101A3000EA072F923F924F925F926F927F928F921E
:101A40009F92AF92BF92CF92DF92EF92FF921F933D
:101A5000CF93DF9300D000D0CDB7DEB7F82E1B01B7
:101A600029013A0161157105B9F40F900F900F909B
:101A70000F90DF91CF911F91FF90EF90DF90CF906B
:101A8000BF90AF909F908F907F906F905F904F909E
:101A90003F902F900C94E80C0E944A0C182F61E0A4
:101AA0008F2D0E94980711160CF037C14101A12C0F
:101AB000B12C60E072E18AE790E0A50194010E94F8
:101AC000B115123009F0A5C029833A834B835C839A
:101AD00069017A0181E0C81AD108E108F108EFEF45
:101AE000CE16D104E104F10409F008F484C060E4E6
:101AF00072E48FE090E0A50194010E94B1156901A4
:101B00007A01F1E0CF1AD108E108F1088FEFC81689
:101B1000D104E104F10409F008F46FC060E970ED4C
:101B200083E090E0A50194010E94B11569017A015A
:101B3000E1E0CE1AD108E108F108FFEFCF16D10499
:101B4000E104F10409F008F45AC068E478EE81E099
:101B500090E0A50194010E94B11569017A0181E02C
:101B6000C81AD108E108F108EFEFCE16D104E1045C
:101B7000F10409F008F445C064E274EF80E090E0FD
:101B8000A50194010E94B11569017A01F1E0CF1A13
:101B9000D108E108F1088FEFC816D104E104F1047F
:101BA00091F188F162E17AE780E090E0A50194018B
:101BB0000E94B11569017A01E1E0CE1AD108E1086D
:101BC000F108FFEFCF16D104E104F104F1F0E8F0E1
:101BD00069817A818B819C8120E034E040E050E093
:101BE0000E94B11569017A0181E0C81AD108E108A3
:101BF000F10867E00BC061E009C062E007C063E084
:101C000005C064E003C065E001C066E081E493E0E4
:101C100023C069017A01E1E0CE1AD108E108F10898
:101C2000C114D104F1E0EF06F10488F068E478EE25
:101C300081E090E0A50194010E94B11569017A014B
:101C400081E0C81AD108E108F10864E001C061E050
:101C5000113021F483E693E00E94E4121414150479
:101C60001604170484F4D101AA0FBB1FA30192012B
:101C70000E94701528EE33E040E050E00E94B1155C
:101C800049015A0104C088248A94982C54011130C7
:101C900021F0123009F041C015C0A60160E083E6D2
:101CA00093E00E94241480923D0390923E03A09200
:101CB0003F03B092400321E04FEF5BE061E083E639
:101CC00093E014C0A60160E081E493E00E94241434
:101CD0008092360390923703A0923803B092390372
:101CE00021E044EB5BE061E081E493E00F900F9032
:101CF0000F900F90DF91CF911F91FF90EF90DF90A9
:101D0000CF90BF90AF909F908F907F906F905F909B
:101D10004F903F902F900C94B7130F900F900F900F
:101D20000F90DF91CF911F91FF90EF90DF90CF90B8
:101D3000BF90AF909F908F907F906F905F904F90EB
:101D40003F902F900895CF92DF92EF92FF920F93E2
:101D50001F93CF93DF936C01EB017A01E60EF71E20
:101D600000E010E00BC06991D601ED91FC9101906B
:101D7000F081E02DC6010995080F191FCE15DF056A
:101D800091F7C801DF91CF911F910F91FF90EF90D4
:101D9000DF90CF9008956115710581F0DB010D9002
:101DA0000020E9F7AD0141505109461B570BDC01FA
:101DB000ED91FC910280F381E02D099480E090E0A8
:101DC0000895DC01ED91FC910190F081E02D0994E2
:101DD0000F931F93CF93DF93EC016DE00E94E10E10
:101DE0008C016AE0CE010E94E10E9C01200F311FA0
:101DF000C901DF91CF911F910F9108950F931F9308
:101E0000CF93DF93EC010E94CB0E8C01CE010E9498
:101E1000E80E9801280F391FC901DF91CF911F915A
:101E20000F910895FC01808191810C948E16CF93BF
:101E3000DF93EC0188819981009711F00E948E1642
:101E4000198218821D821C821B821A82DF91CF9117
:101E500008950F931F93CF93DF93EC018B016F5F76
:101E60007F4F888199810E942B17009731F09983C9
:101E700088831B830A8381E001C080E0DF91CF91DA
:101E80001F910F910895CF93DF93EC018881998181
:101E9000892B31F08A819B818617970708F00CC047
:101EA000CE010E94290F882349F08C819D81892BC6
:101EB00019F4E881F981108281E001C080E0DF91AE
:101EC000CF910895EF92FF920F931F93CF93DF93DB
:101ED000EC017B018A01BA010E94430F811104C009
:101EE000CE010E94170F07C01D830C83B7018881A4
:101EF00099810E943518CE01DF91CF911F910F91EA
:101F0000FF90EF900895DC0111961C921E9213969B
:101F10001C921E92129715961C921E92149716965A
:101F20001C926115710559F0DB010D900020E9F755
:101F3000AD0141505109461B570B0C94620F089597
:101F4000CF93DF93EC01FB018617970761F0608167
:101F500071816115710529F0448155810E94620FDC
:101F600002C00E94170FCE01DF91CF910895FC01AE
:101F700011821082138212821582148216820C94AE
:101F8000A00FCF93DF93D82FC92F6115710561F092
:101F9000DB010D900020E9F7AD0141505109461BCE
:101FA000570B0E94620F02C00E94170F8D2F9C2FAB
:101FB000DF91CF9108950F931F93CF93DF93CDB708
:101FC000DEB762970FB6F894DEBF0FBECDBF8C01AF
:101FD000CB01F801118210821382128215821482C1
:101FE000168250E0BE016F5F7F4F0E947218BE01E3
:101FF0006F5F7F4FC8010E94C10F62960FB6F894C1
:10200000DEBF0FBECDBFDF91CF911F910F9108951D
:10201000CF93DF9300D0CDB7DEB7FC0111821082E1
:102020001382128215821482168269831A82BE017B
:102030006F5F7F4F0E94C10F0F900F90DF91CF9184
:102040000895EF92FF920F931F93CF93DF93EC01CC
:102050007B010C811D816115710511F480E016C0B2
:102060004115510591F0040F151FB8010E94430F4F
:102070008823A1F3288139818C819D81B701820F4A
:10208000931F0E9435181D830C8381E0DF91CF914F
:102090001F910F91FF90EF900895FB0144815581AE
:1020A000608171810C942110CF93DF9300D0CDB764
:1020B000DEB769831A8241E050E0BE016F5F7F4F57
:1020C0000E9421100F900F90DF91CF910895CF9330
:1020D000DF93DC01ED91FC91EB01A881B981309790
:1020E00011F01097C9F4109759F0EB012C813D8144
:1020F000232B31F02C9130E031952195310914C01A
:10210000309781F0DC0114968D919C911597892B65
:1021100049F0208130E008C0BD01CF01DF91CF91AF
:102120000C942C1820E030E0C901DF91CF91089584
:10213000FC0144815581FB012481358142175307FD
:1021400029F40E94671021E0892B09F020E0822FFA
:102150000895DC0114962D913C911597232B39F4A9
:1021600081E06115710511F0FB0108C00895DC01E3
:10217000ED91FC916115710529F481E0908199231D
:1021800049F007C0CF010E942C189C0181E0232B4D
:1021900009F080E00895FC0184819581DB011496AB
:1021A0004D915C91159784179507A0F0208131819E
:1021B0002115310579F06D917C916115710551F012
:1021C000841B950B820F931F0E942C189C0181E0A9
:1021D000232B09F080E008950F931F93CF93DF9393
:1021E000EB0141155105E9F02097D9F0FC0104817C
:1021F00015812017310708F013C041505109021B07
:10220000130B4017510708F48A01FC0160817181AA
:10221000620F731FA801CE010E943C18C00FD11F8E
:102220001882DF91CF911F910F910895FC01808159
:102230009181009711F00C94F71760E070E080E056
:1022400090E0089563E085E893E00E94E11321E0C7
:102250004FE257E060E085E893E00E94B71364E046
:1022600085E893E00E94E41261E083E693E00E9437
:10227000E11364E083E693E00E94E41261E081E40C
:1022800093E00E94E11364E081E493E00E94E41291
:10229000789408951F920F920FB60F9211242F93E6
:1022A0003F934F935F936F937F938F939F93AF93DE
:1022B000BF93EF93FF93E0919F03F091A0033097BA
:1022C00009F00995FF91EF91BF91AF919F918F9187
:1022D0007F916F915F914F913F912F910F900FBE22
:1022E0000F901F9018951F920F920FB60F92112406
:1022F0002F933F934F935F936F937F938F939F930E
:10230000AF93BF93EF93FF93E091A103F091A203EA
:10231000309709F00995FF91EF91BF91AF919F918F
:102320008F917F916F915F914F913F912F910F907E
:102330000FBE0F901F9018951F920F920FB60F921D
:1023400011242F933F934F935F936F937F938F93BA
:102350009F93AF93BF93EF93FF93E0919D03F09111
:102360009E03309709F00995FF91EF91BF91AF91CE
:102370009F918F917F916F915F914F913F912F919D
:102380000F900FBE0F901F9018951F920F920FB6CF
:102390000F9211242F933F934F935F936F937F93EB
:1023A0008F939F93AF93BF93EF93FF93E0915B0362
:1023B000F0915C03309709F00995FF91EF91BF917F
:1023C000AF919F918F917F916F915F914F913F91CD
:1023D0002F910F900FBE0F901F9018951F920F9284
:1023E0000FB60F9211242F933F934F935F936F93E8
:1023F0007F938F939F93AF93BF93EF93FF93E0915E
:102400005D03F0915E03309709F00995FF91EF911C
:10241000BF91AF919F918F917F916F915F914F91FC
:102420003F912F910F900FBE0F901F9018951F9204
:102430000F920FB60F9211242F933F934F935F93F8
:102440006F937F938F939F93AF93BF93EF93FF937C
:10245000E0915903F0915A03309709F00995FF91E3
:10246000EF91BF91AF919F918F917F916F915F910C
:102470004F913F912F910F900FBE0F901F90189585
:102480001F920F920FB60F9211242F933F934F93E9
:102490005F936F937F938F939F93AF93BF93EF93CC
:1024A000FF93E0917D03F0917E03309709F0099549
:1024B000FF91EF91BF91AF919F918F917F916F911C
:1024C0005F914F913F912F910F900FBE0F901F90F2
:1024D00018951F920F920FB60F9211242F933F93CE
:1024E0004F935F936F937F938F939F93AF93BF931C
:1024F000EF93FF93E0917F03F0918003309709F011
:102500000995FF91EF91BF91AF919F918F917F912D
:102510006F915F914F913F912F910F900FBE0F9050
:102520001F9018951F920F920FB60F9211242F93A0
:102530003F934F935F936F937F938F939F93AF934B
:10254000BF93EF93FF93E0917B03F0917C0330976F
:1025500009F00995FF91EF91BF91AF919F918F91F4
:102560007F916F915F914F913F912F910F900FBE8F
:102570000F901F9018951F920F920FB60F92112473
:102580002F933F934F935F936F937F938F939F937B
:10259000AF93BF93EF93FF93E0918303F091840394
:1025A000309709F00995FF91EF91BF91AF919F91FD
:1025B0008F917F916F915F914F913F912F910F90EC
:1025C0000FBE0F901F901895DC012C9161502230A6
:1025D00039F4673068F4E62FF0E0E455FE4F06C0AA
:1025E000693030F4E62FF0E0ED54FE4F208101C059
:1025F00020E0DC011A96ED91FC911B978081887F89
:10260000822B80830895CF93DF93EC016883613040
:1026100011F120F0623009F06CC048C01B821A82B0
:1026200086E490E09D838C838EE690E09F838E838A
:1026300084E490E09987888785E490E09B878A8787
:102640001D861C8687E490E09F878E87198A188AEA
:1026500088E490E022C08FE690E09F838E8385E837
:1026600090E09B838A8384E890E09D838C8380E85C
:1026700090E09987888781E890E09B878A8789E83E
:1026800090E09D878C8788E890E09F878E878BE815
:1026900090E0998B888B8AE890E09B8B8A8B1D8ACF
:1026A0001C8A1F8A1E8A82E0898323C01B821A82A9
:1026B00082EB90E09D838C8380E790E09F838E8304
:1026C00080EB90E09987888781EB90E09B878A87F1
:1026D0001D861C8683EB90E09F878E87198A188A57
:1026E00084EB90E09B8B8A8B1D8A1C8A1F8A1E8A32
:1026F000698360E0CE010E94E412EA81FB81309799
:1027000009F01082EC81FD811082198E188E1B8ECB
:102710001A8E1D8E1C8E1F8E1E8E19A218A2DF917E
:10272000CF91089551E0411101C050E06530F0F4BF
:10273000E62FF0E0E454FE4F408147FD17C0DC0176
:102740001696ED91FC911797808121E030E0042EE0
:1027500001C0220F0A94EAF720952823852F042E22
:1027600001C0880F0A94EAF7282B2083089562306D
:1027700099F028F4662341F06130C9F409C0633050
:1027800079F06430A1F410C0FC01518F408F0FC06C
:10279000FC01538F428F0BC0FC01558F448F07C043
:1027A000FC01578F468F03C0FC0151A340A3452B6A
:1027B00011F440E003C0222319F041E00C9492137D
:1027C0000895DC011896ED91FC9119973081262F20
:1027D00023703C7F232B20831A96ED91FC911B974D
:1027E00080816C70660F877E682B60830895FC0182
:1027F0008181681740F59081992311F0923011F48E
:10280000813049F0662329F0613029F0623031F4DB
:1028100004C026E003C024E001C022E00084F1856A
:10282000E02D308183E090E0022E01C0880F0A94F1
:10283000EAF7809583234370022E01C0440F0A9467
:10284000EAF7842B80830895FC0181816817F8F4EE
:10285000611109C0A485B585109709F05C930684C1
:10286000F785E02D13C0613049F4A089B189109734
:1028700009F05C930288F389E02D08C0623039F4D6
:10288000A489B5895C930688F789E02D4083089573
:1028900060E085E893E00E94031361E083E693E043
:1028A0000E94031362E081E493E00C94031340D090
:1028B00008F481E00895E89409C097FB3EF49095F0
:1028C0008095709561957F4F8F4F9F4F9923A9F009
:1028D000F92F96E9BB279395F69587957795679598
:1028E000B795F111F8CFFAF4BB0F11F460FF1BC0DC
:1028F0006F5F7F4F8F4F9F4F16C0882311F096E96F
:1029000011C0772321F09EE8872F762F05C066231C
:1029100071F096E8862F70E060E02AF09A95660FD5
:10292000771F881FDAF7880F9695879597F908958E
:10293000990F0008550FAA0BE0E8FEEF16161706D0
:10294000E807F907C0F012161306E407F50798F038
:10295000621B730B840B950B39F40A2661F0232B51
:10296000242B252B21F408950A2609F4A140A695CD
:102970008FEF811D811D089597F99F6780E870E0B2
:1029800060E008959FEF80EC089500240A941616E5
:10299000170618060906089500240A94121613064D
:1029A000140605060895092E0394000C11F48823DB
:1029B00052F0BB0F40F4BF2B11F460FF04C06F5FF7
:1029C0007F4F8F4F9F4F089557FD9058440F551FCD
:1029D00059F05F3F71F04795880F97FB991F61F0A1
:1029E0009F3F79F087950895121613061406551F18
:1029F000F2CF4695F1DF08C0161617061806991F84
:102A0000F1CF86957105610508940895E894BB2778
:102A100066277727CB0197F908950BD0C4CFB5DF90
:102A200028F0BADF18F0952309F0A6CFABCF112418
:102A3000EECFCADFA0F3959FD1F3950F50E0551F5D
:102A4000629FF001729FBB27F00DB11D639FAA2703
:102A5000F00DB11DAA1F649F6627B00DA11D661F52
:102A6000829F2227B00DA11D621F739FB00DA11D73
:102A7000621F839FA00D611D221F749F3327A00D2D
:102A8000611D231F849F600D211D822F762F6A2FC9
:102A900011249F5750408AF0E1F088234AF0EE0F4E
:102AA000FF1FBB1F661F771F881F91505040A9F75B
:102AB0009E3F510570F060CFAACF5F3FECF3983E88
:102AC000DCF3869577956795B795F795E7959F5FC2
:102AD000C1F7FE2B880F911D9695879597F908955C
:102AE0000E94CD15A59F900DB49F900DA49F800DC1
:102AF000911D1124089597FB072E16F4009407D01A
:102B000077FD09D00E94D91507FC05D03EF49095B9
:102B100081959F4F0895709561957F4F0895A1E22B
:102B20001A2EAA1BBB1BFD010DC0AA1FBB1FEE1F47
:102B3000FF1FA217B307E407F50720F0A21BB30B92
:102B4000E40BF50B661F771F881F991F1A9469F70E
:102B500060957095809590959B01AC01BD01CF016A
:102B60000895052E97FB16F4009407D057FD0DD05D
:102B70000E948F1507FC09D07EF490958095709582
:102B800061957F4F8F4F9F4F089550954095309599
:102B900021953F4F4F4F5F4F0895A29FB001B39FC4
:102BA000C001A39F01D0B29F700D811D1124911D02
:102BB0000895AA1BBB1B51E107C0AA1FBB1FA61784
:102BC000B70710F0A61BB70B881F991F5A95A9F7D6
:102BD00080959095BC01CD010895EE0FFF1F0590E3
:102BE000F491E02D09940F931F93CF93DF938230DC
:102BF000910510F482E090E0E091A903F091AA031E
:102C000020E030E0C0E0D0E023C04081518148178F
:102C10005907A8F04817590761F4828193812097DA
:102C200019F09B838A832EC09093AA038093A903F3
:102C300029C02115310529F04217530710F0A901C9
:102C400002C0BE01DF0102811381EF019A01F80188
:102C50003097D9F62115310509F1281B390B24309D
:102C6000310590F412968D919C9113976115710521
:102C700021F0FB019383828304C09093AA03809385
:102C8000A903FD01329644C0FD01E20FF31F8193B9
:102C90009193225031092D933C933AC02091A70380
:102CA0003091A803232B41F42091020130910301BC
:102CB0003093A8032093A7032091000130910101D4
:102CC0002115310541F42DB73EB7409104015091D3
:102CD0000501241B350BE091A703F091A803E2172F
:102CE000F307A0F42E1B3F0B2817390778F0AC012F
:102CF0004E5F5F4F2417350748F04E0F5F1F50930C
:102D0000A8034093A7038193919302C0E0E0F0E011
:102D1000CF01DF91CF911F910F910895EF92FF9214
:102D20000F931F93CF93DF93009709F48FC0DC01BB
:102D3000129713961C921E921297E090A903F0909E
:102D4000AA03E114F10489F42D913C911197280F05
:102D5000391F8091A7039091A8038217930789F5E3
:102D6000B093A803A093A70371C0E70120E030E06F
:102D700001C0EA01CA17DB0738F44A815B819E0172
:102D800041155105B1F722C0BC0162507109FB0128
:102D9000D383C28300811181AC01400F511F4C17B6
:102DA0005D0761F448815981400F511F4E5F5F4FAD
:102DB000518340834A815B815383428321153105CE
:102DC00029F4B093AA03A093A90340C0F901B383E7
:102DD000A283E90169917991C60FD71FAC17BD078E
:102DE00079F4DC015E914E91460F571F4E5F5F4FA5
:102DF0005183408312968D919C9113979383828384
:102E0000A0E0B0E002C0D7017C01F701828193818C
:102E10000097C9F7C701029620813181820F931F65
:102E20002091A7033091A8032817390779F4109748
:102E300029F41092AA031092A90304C013961C92BD
:102E40001E921297F092A803E092A703CDB7DEB7C7
:102E5000E6E00C94F618A0E0B0E0E1E3F7E10C94B2
:102E6000D418EC01009729F4CB010E94F315EC0172
:102E7000B8C0DC01A60FB71FFC013297AE17BF0721
:102E800018F4C0E0D0E0ADC000811181061717072B
:102E9000B0F00530110508F4A4C0C80104978617E6
:102EA000970708F49EC002501109061B170B0D93DB
:102EB0001D9371836083CD010E948E1692C07B01A9
:102EC000E01AF10A5C01A00EB11EE091A903F09195
:102ED000AA03812C912C80E090E04CC0EA15FB0500
:102EE000F1F5408151816A0122E0C20ED11CCE145D
:102EF000DF04A8F19A012E193F097901690132E036
:102F0000C30ED11C2EEFA22EBB24BA94AC0EBD1E54
:102F100025E0C216D10478F04281538113965C9368
:102F20004E9312971196FC92EE92F5017183608395
:102F30003A2F2B2F09C00E5F1F4F040F151FD5010D
:102F40000D931C9332812381009721F0FC01328381
:102F5000238347C03093A9032093AA0342C08081F2
:102F600091818816990608F44C0152814381CF0162
:102F7000E52FF42F309709F0B1CF8091A7039091FE
:102F8000A8038A159B05F1F486169706D8F480915C
:102F9000000190910101009741F48DB79EB72091F7
:102FA000040130910501821B930BA817B90708F0A3
:102FB00068CFB093A803A093A703FE013297718353
:102FC00060830FC0CB010E94F3157C01009709F4C8
:102FD00058CFA801BE010E942318CE010E948E1670
:102FE000E701CE01CDB7DEB7ECE00C94F0181F93EB
:102FF000FC0199278827BC01E89411911032E9F36C
:10300000193010F01E30C8F31B3251F01D3249F454
:10301000689406C00E949318610F711D811D911D57
:10302000119110531A30B0F33EF49095809570953D
:1030300061957F4F8F4F9F4F1F91089542EC51E054
:103040000E944B180895FB01DC0102C001900D9213
:1030500041505040D8F70895FB01DC018D9101905B
:1030600080190110D9F3990B0895FB01DC0101903F
:103070000D920020E1F70895FB01DC014150504022
:1030800048F001900D920020C9F701C01D924150F7
:103090005040E0F70895FA01A191B081009719F42A
:1030A0001097E1F0CD01DC01CD010D90002011F46D
:1030B000C00113C0FB012191222319F02015D9F77B
:1030C000F3CFFB012191201519F41E92119606C031
:1030D0002223C1F70D900020A1F7D001FA01A1939E
:1030E000B0830895FB019F01E8944230C4F045325B
:1030F000B4F44A3029F497FB1EF4909581959F4FC4
:10310000642F77270E94D915805D8A330CF0895D82
:103110008193CB010097A1F716F45DE251931082E1
:10312000C9010C94BE18592F482F372F262F660F30
:10313000771F881F991F660F771F881F991F620FBF
:10314000731F841F951F660F771F881F991F08958F
:10315000F999FECF92BD81BDF89A992780B508955F
:10316000262FF999FECF1FBA92BD81BD20BD0FB6A3
:10317000F894FA9AF99A0FBE01960895DC01FC01C1
:10318000672F71917723E1F7329704C07C916D939B
:1031900070836291AE17BF07C8F308952F923F92D4
:1031A0004F925F926F927F928F929F92AF92BF9257
:1031B000CF92DF92EF92FF920F931F93CF93DF9303
:1031C000CDB7DEB7CA1BDB0B0FB6F894DEBF0FBE60
:1031D000CDBF09942A88398848885F846E847D84AD
:1031E0008C849B84AA84B984C884DF80EE80FD80AF
:1031F0000C811B81AA81B981CE0FD11D0FB6F89425
:10320000DEBF0FBECDBFED01089510E0C4E8D0E0F1
:1032100004C0FE010E94EF152296C638D107C9F7F7
:04322000F894FFCF50
:103224000000AB03200010000E0004030208070690
:10323400053132333435363738392A302311000119
:103244000101FFFF3B0061677265676172436C6156
:1032540076650061637475616C697A6172436C614F
:10326400766500626F72726172436C6176650062AA
:103274006F72726172546F646F0031323334003490
:1032840033323100616C6572746134002A002300AA
:10329400616C657274613300616C657274613200D3
:1032A400616C657274613100000000006D08A30E4A
:1032B4001F0824084A083808000000004508C5080B
:1032C400CB08000000004008B908BF08010203044D
:1032D40005060701020003000405060700010203B6
:0232E4000500E3
:00000001FF
