:100000000C9442000C946A000C946A000C946A00F0
:100010000C946A000C946A000C946A000C946A00B8
:100020000C946A000C94570B0C94800B0C94A90B45
:100030000C944D0C0C94D20B0C94FB0B0C94240CD4
:100040000C94DC0A0C94050B0C942E0B0C946A0097
:100050000C9474080C9427060C946A000C946A00A3
:100060000C946A000C946A000C946A000C946A0068
:100070000C9449080C9475060C946A007A029F0847
:10008000DA0D9D0211241FBECFEFD0E1DEBFCDBF40
:1000900011E0A0E0B1E0ECE1F1E202C005900D92C8
:1000A000AC37B107D9F712E0ACE7B1E001C01D925F
:1000B000A43EB107E1F710E0C2E8D0E004C0229707
:1000C000FE010E94290ECC37D107C9F70E94A9086A
:1000D0000C9481100C94000081E891E00E94B0081B
:1000E00082EB91E00E94B0088BEA91E00C94B0089A
:1000F0000F931F93CF93DF93EB018A0142E0BC0182
:100100008BE00E94140542E0BE0189E00E941405C4
:1001100042E0B8018DE0DF91CF911F910F910C94D7
:1001200014050F931F93CF93DF93CDB7DEB7659779
:100130000FB6F894DEBF0FBECDBF809106010E94BE
:10014000590490E090937D0180937C01019761F4C4
:1001500061E0809108010E947D046DE171E08EE113
:1001600092E00E94A00A05C060E0809108010E9410
:100170007D0480917E01811107C088E891E00E9492
:10018000B502882391F001C0FFCF682FCE010F96F2
:100190000E947909BE01615F7F4F81E891E00E9472
:1001A000BE09CE010F960E94B0088091800188237D
:1001B00029F165E271E0CE010F960E942109BE018E
:1001C000615F7F4F81E891E00E94240A182FCE01E1
:1001D0000F960E94B008112389F01092800140E030
:1001E00050E06FEF70E08FEF90E00E94780042984F
:1001F00068E271E081E891E00E945F0967E271E0E6
:10020000CE010F960E942109BE01615F7F4F81E8F8
:1002100091E00E94240A882361F011E02091850179
:10022000309186018091AF019091B00182179307C0
:1002300008F410E0CE010F960E94B008112331F0AF
:1002400068E271E081E891E00E945F09809180019D
:100250008823A1F00E94E0040091A6011091A7015B
:100260002091A8013091A901601B710B820B930BA7
:1002700068397A438105910508F0E9C08091AF01A2
:100280009091B00101962091850130918601281747
:10029000390709F05DC06BEA71E0CE0108960E9453
:1002A000550967E271E0CE0108960E94C509BC01BC
:1002B00081E891E00E94130A882321F08091800157
:1002C0008823D9F062EB71E0CE0101960E945509B6
:1002D00067E271E0CE0101960E94C509BC0181E888
:1002E00091E00E94130A882309F4C0C011E08091B4
:1002F0008001882309F4BBC0B9C011E0CE01089683
:100300000E94B0081123C9F0429A81E080938001D5
:100310000E94E0046093A6017093A7018093A80156
:100320009093A9014FEF50E060E070E08FEF90E014
:100330000E94780010927F010BC080917F018F5F37
:1003400080937F0168E271E081E891E00E945F099B
:1003500080917F01833020F168E271E081E891E0D3
:100360000E945F0910927F0169E271E08EE192E0E4
:100370000E94A00A4FEF50E06FEF70E080E090E045
:100380000E94780060E375E780E090E00E94F2044C
:1003900040E050E06FEF70E08FEF90E00E94780057
:1003A0008091AA0181111CC0349B4AC00E94E004C4
:1003B0006093A6017093A7018093A8019093A9016F
:1003C00011E01093AA014FEF50E060E070E08FEF72
:1003D00090E00E9478001093800110927F0130C05D
:1003E000349B22C00E94E0040091A6011091A70155
:1003F0002091A8013091A901601B710B820B930B16
:100400006031774281059105D8F04FEF50E06FEFF2
:1004100070E080E090E00E94780061E371E08EE19E
:1004200092E00E94A00A0CC040E050E06FEF70E044
:100430008FEF90E00E947800109280011092AA0144
:1004400064E670E080E090E00E94F20415C04FEF97
:1004500050E06FEF70E080E090E00E94780061E390
:1004600071E08EE192E00E94A00A08CF10E0CE0178
:1004700001960E94B00842CF65960FB6F894DEBF91
:100480000FBECDBFDF91CF911F910F910895EF92D5
:100490000F93E12C01E028E040E855E260E070E0D5
:1004A0008EE192E00E94470768E271E081E891E006
:1004B0000E945F091092800110927F0110927E01CC
:1004C0001092AA013B9A399A3D9A3C9840E050E03C
:1004D0006FEF70E08FEF90E00E94780061E0809114
:1004E00008010E942B0460E0809106010F91EF90BB
:1004F0000C942B04EF920F9369E371E08BEA91E087
:100500000E9421096EE371E082EB91E00E942109D3
:1005100083E0E82E04E02AE031E04DE051E061E1C3
:1005200071E088E891E00E94FF0368E271E081E8F1
:1005300091E00F91EF900C9421090C946C00DC0178
:1005400018968D919C9119978617970769F01996BF
:100550007C936E9318975C96ED91FC915D97309724
:1005600019F01A968C91099408954F925F926F92A8
:100570007F92AF92BF92CF92DF92EF92FF920F9352
:100580001F93CF93DF93EC01A12CA8C00A2D10E09C
:10059000EC81FD81E00FF11F60E080810E947D040D
:1005A000B12C68018EC0EB2CF12C8F81E881F98190
:1005B000EC0DFD1DB89EE00DF11D11249A85808182
:1005C00098133CC00E94E0044E845F846888798858
:1005D00064197509860997094A8C5B8C612C712C0A
:1005E000641575058605970550F0EA81FB81EE0DCF
:1005F000FF1D80810E945904882309F498C00E943D
:10060000E0044E845F8468887988641975098609D6
:100610009709488C598C612C712C641575058605D9
:10062000970508F493C0EA81FB81EB0DF11D8081F1
:100630000E945904813009F089C07FC00E94E00403
:100640004E845F84688879886419750986099709DA
:10065000488C598C612C712C64157505860597059D
:1006600078F1EA81FB81EE0DFF1D80810E94590423
:10067000811126C0EC81FD81E00FF11F61E08081D6
:100680000E947D042F812E9DC0012F9D900D11246D
:10069000E881F981EC0DFD1DE80FF91FF0808E85D2
:1006A0009F85A889B9898A8B9B8BAC8BBD8B0E9457
:1006B000E0046E877F87888B998BF11015C005C089
:1006C000B3948E81B81608F46ECFEC81FD81E00FF3
:1006D000F11F61E080810E947D04A3948F81A816A0
:1006E00008F454CF80E040C08B85F81239C00E94D6
:1006F000E0040A891B892C893D89601B710B820BE0
:10070000930B0E891F8920E030E006171707280792
:10071000390710F525C081E090E09D878C87FA8627
:1007200061E070E0CE010E949F028A851DC063E0F7
:1007300070E0CE010E949F0262CF62E070E0CE01C5
:100740000E949F028A858B871A86BFCF88859985EC
:10075000039709F0B5CFB9CF8C859D850196DDCF84
:100760008A85F812D8CFBECFDF91CF911F910F911C
:10077000FF90EF90DF90CF90BF90AF907F906F9001
:100780005F904F900895FF920F931F93CF93DF9345
:10079000EC01F12C13C00F2D10E0EA81FB81E00F7A
:1007A000F11F60E080810E942B04EA81FB81E00F51
:1007B000F11F61E080810E947D04F3948E81F81620
:1007C00050F3F12C13C00F2D10E0EC81FD81E00FF0
:1007D000F11F61E080810E942B04EC81FD81E00F1C
:1007E000F11F61E080810E947D04F3948F81F816EF
:1007F00050F3DF91CF911F910F91FF900895EF92E9
:100800000F93FC0153834283358324830683E7825D
:100810007183608316861786108A118A128A138A5A
:10082000148A158A8CE291E0978B868B82E390E0A4
:10083000918F808F88EE93E0938F828F158E148E28
:10084000128613861186108615861486CF010F91A5
:10085000EF900C94C303982F977021E030E0092E9D
:1008600001C0220F0A94EAF786958695869581F055
:10087000813089F0823091F08330D1F412C08081D0
:100880002095822302C08081822B80839FBF0895A0
:10089000EAE2F0E008C0E7E2F0E005C0E4E2F0E000
:1008A00002C0E1E2F0E09FB7F894662341F3EBCF9A
:1008B0000895982F977021E030E001C0220F9A959B
:1008C000EAF786958695869539F0813041F0823039
:1008D00049F0833051F00895E9E2F0E008C0E6E223
:1008E000F0E005C0E3E2F0E002C0E0E2F0E0908179
:1008F000922381E009F480E00895982F977021E019
:1009000030E0092E01C0220F0A94EAF786958695F9
:10091000869581F0813089F0823091F08330D1F476
:1009200012C080812095822302C08081822B808327
:100930009FBF0895EBE2F0E008C0E8E2F0E005C0F8
:10094000E5E2F0E002C0E2E2F0E09FB7F89466234F
:1009500041F3EBCF08958091BA019091BB01A09132
:10096000BC01B091BD013091B901232F2D5F2D370E
:1009700020F40196A11DB11D05C0232F2A57029610
:10098000A11DB11D2093B9018093BA019093BB01C1
:10099000A093BC01B093BD018091BE019091BF01B5
:1009A000A091C001B091C1010196A11DB11D80931C
:1009B000BE019093BF01A093C001B093C1010895FF
:1009C0000F931F938FB7F8940091BA011091BB0158
:1009D0002091BC013091BD018FBFB801C9011F91A9
:1009E0000F9108958F929F92AF92BF92CF92DF9214
:1009F000EF92FF926B017C010E94E0044B015C01CD
:100A00000E94E004681979098A099B096C157D0523
:100A10008E059F05A8F3FF90EF90DF90CF90BF90D9
:100A2000AF909F908F9008951F93CF93DF93182FCF
:100A3000EB01209721F460E00E947D0440E0143037
:100A400079F1153029F11630E9F1173099F11331A8
:100A500069F0143109F044C011C060E001C061E0E8
:100A6000812FDF91CF911F910C947D0460E08EEB7C
:100A700092E00E94890DAE0160E007C061E08EEB5C
:100A800092E00E94890DAE0161E08EEB92E023C0FE
:100A900060E08CE992E00E94890DAE0160E007C041
:100AA00061E08CE992E00E94890DAE0161E08CE981
:100AB00092E011C060E08AE792E00E94890DAE01E9
:100AC00060E007C061E08AE792E00E94890DAE0114
:100AD00061E08AE792E0DF91CF911F910C94B60D0F
:100AE000C038D10508F4B9CFBACFFC0120893189CB
:100AF000C9010895DC0150962D913C915197232B0B
:100B000049F05496ED91FC915597E80FF91F26890D
:100B100030E002C02FEF3FEFC9010895FC01118AB8
:100B2000108A158A148A138A128A0895FC01248176
:100B30003581C9010895FC0124813581C9010895D9
:100B4000FC0180899189892BD1F03FB7F894808985
:100B500091890197918B808B84899589DF01A80FFA
:100B6000B91F56962C910196803291051CF4958BF5
:100B7000848B02C0158A148A3FBF30E002C02FEF79
:100B80003FEFC9010895EF92FF921F93CF93DF9338
:100B90001F92CDB7DEB77C01D701DA968D919C917B
:100BA000DB974097C8F71FB7F894D696ED91FC9164
:100BB000D7970190F081E02DC701C696698309950A
:100BC00069814097C8F4F70182AD93AD019693AF68
:100BD00082AF84AD95ADE80FF91FE05CFF4F6083F5
:100BE0000196D701DD969C938E93DC97409724F075
:100BF000DD961C921E92DC97F701EA5AFF4F019096
:100C0000F081E02D8081806280831FBF81E090E0D1
:100C10000F90DF91CF911F91FF90EF900895665F45
:100C20007F4F680F791FCB010895665F7F4F680F74
:100C3000791FCB010895665F7F4F680F791FCB0145
:100C40000895665F7F4F680F791FCB0108951F924B
:100C50000F920FB60F9211242F938F939F93AF9300
:100C6000BF93EF93FF938091580290915902892B83
:100C700021F1E0917802F0917902809158029091EF
:100C800059020197909359028093580280915C0217
:100C900090915D02DC01AC5ABD4F1A962C910196E1
:100CA000803191052CF490935D0280935C0204C026
:100CB00010925D0210925C02208380915802909104
:100CC0005902892B31F4E0917402F091750288E9A0
:100CD0008083FF91EF91BF91AF919F918F912F9161
:100CE0000F900FBE0F901F9018951F920F920FB686
:100CF0000F9211242F938F939F93AF93BF93EF93F2
:100D0000FF938091FC019091FD01892B21F1E091ED
:100D10001C02F0911D028091FC019091FD01019750
:100D20009093FD018093FC0180910002909101025B
:100D3000DC01A850BE4F1A962C9101968031910586
:100D40002CF4909301028093000204C010920102DF
:100D50001092000220838091FC019091FD01892B6B
:100D600031F4E0911802F091190288E98083FF9133
:100D7000EF91BF91AF919F918F912F910F900FBEE7
:100D80000F901F901895FC01262F1382128248EEB7
:100D900053E060E070E0448355836683778387E4A3
:100DA00091E09183808387E591E09587848780E255
:100DB00090E097878687118A108A158A148A138A89
:100DC000128A81E691E097AB86AB80E190E091AF2B
:100DD00080AF13AE12AE17AE16AE15AE14AE222310
:100DE00021F0213009F052C028C0DF01A05BBF4FC5
:100DF00085EC90E08D939C93DF01AE5ABF4F84EC5D
:100E000090E08D939C93DF01AC5ABF4F80EC90E053
:100E10008D939C93DF01AA5ABF4F81EC90E08D9394
:100E20009C93DF01A85ABF4F82EC90E08D939C9376
:100E3000E65AFF4F86EC90E027C0DF01A05BBF4F72
:100E40008DEC90E08D939C93DF01AE5ABF4F8CECFC
:100E500090E08D939C93DF01AC5ABF4F88EC90E0FB
:100E60008D939C93DF01AA5ABF4F89EC90E08D933C
:100E70009C93DF01A85ABF4F8AEC90E08D939C931E
:100E8000E65AFF4F8EEC90E09183808308953F9265
:100E90004F925F926F927F928F929F92AF92BF928A
:100EA000CF92DF92EF92FF920F931F93CF93DF9336
:100EB000EC014A015B01122F3E2C60E072E18AE7EF
:100EC00090E0A50194010E94E90D69017A0184E096
:100ED000C80ED11CE11CF11C83E0F694E794D79472
:100EE000C7948A95D1F760E074E284EF90E0A501A1
:100EF00094010E94E90D29013A0194E0490E511C28
:100F0000611C711C93E076946794579447949A956A
:100F1000D1F7A30192014427552760E874E88EE1D8
:100F200090E00E940B0E5901A818B908B7FE03C043
:100F3000B194A194B108A70196014427552760E414
:100F400072E48FE090E00E940B0E2819390937FFF8
:100F500003C0319521953109FE01EC5AFF4F0190F4
:100F6000F081E02DA216B3063CF482E0808362019A
:100F700081E0C81AD10804C0108291E0C91AD108D2
:100F80001630C1F018F4153099F405C0173029F067
:100F9000193071F404C080E00EC084E00CC0FE0182
:100FA000EA5AFF4F0190F081E02D808184608083B8
:100FB00086E001C082E0023009F4886091E03916D1
:100FC00021F092E0391204C002C0806301C0806247
:100FD000FE01E85AFF4F0190F081E02D8083FE0171
:100FE000E05BFF4F0190F081E02DD082FE01EE5AD0
:100FF000FF4F0190F081E02DC082CA5ADF4FE88197
:10100000F98188E98083DF91CF911F910F91FF9043
:10101000EF90DF90CF90BF90AF909F908F907F9098
:101020006F905F904F903F9008950F931F93CF93D1
:10103000DF931F92CDB7DEB78C01DC01ED91FC91FF
:101040000190F081E02D6983099569818097D0F442
:10105000F8018481958101969583848386819781A7
:10106000E80FF91F628701968032910534F4D801A8
:1010700017969C938E93169703C0F80117821682D9
:1010800081E001C080E00F90DF91CF911F910F911F
:1010900008951F920F920FB60F9211242F933F9332
:1010A0004F935F936F937F938F939F93AF93BF9370
:1010B000EF93FF93E0911C02F0911D0260818EEC92
:1010C00091E00E941508FF91EF91BF91AF919F9120
:1010D0008F917F916F915F914F913F912F910F90E1
:1010E0000FBE0F901F9018951F920F920FB60F9280
:1010F00011242F933F934F935F936F937F938F931D
:101100009F93AF93BF93EF93FF93E0917802F09199
:10111000790260818AE292E00E941508FF91EF91C6
:10112000BF91AF919F918F917F916F915F914F91FF
:101130003F912F910F900FBE0F901F90189560E078
:101140008EE192E00E94C30661E082EC91E00C9493
:10115000C3060E94B40A0E9447020E949100FDCF7C
:10116000FC01808191810C94C80ECF93DF93EC0138
:1011700088819981009711F00E94C80E1982188207
:101180001D821C821B821A82DF91CF9108950F93DA
:101190001F93CF93DF93EC018B016F5F7F4F8881AB
:1011A00099810E94650F009731F0998388831B8392
:1011B0000A8381E001C080E0DF91CF911F910F9100
:1011C0000895CF93DF93EC0188819981892B31F0C9
:1011D0008A819B818617970708F00CC0CE010E9478
:1011E000C708882349F08C819D81892B19F4E881F7
:1011F000F981108281E001C080E0DF91CF910895F4
:10120000EF92FF920F931F93CF93DF93EC017B013B
:101210008A01BA010E94E108811104C0CE010E9436
:10122000B50807C01D830C83B701888199810E948E
:101230004310CE01DF91CF911F910F91FF90EF905E
:101240000895DC0111961C921E9213961C921E9218
:10125000129715961C921E92149716961C92611561
:10126000710559F0DB010D900020E9F7AD01415007
:101270005109461B570B0C9400090895CF93DF9337
:10128000EC01FB018617970761F0608171816115A0
:10129000710529F0448155810E94000902C00E9415
:1012A000B508CE01DF91CF910895FC011182108223
:1012B000138212821582148216820C943E09CF93F7
:1012C000DF93D82FC92F6115710561F0DB010D90F7
:1012D0000020E9F7AD0141505109461B570B0E9410
:1012E000000902C00E94B5088D2F9C2FDF91CF917D
:1012F0000895CF93DF9300D0CDB7DEB7FC01118204
:1013000010821382128215821482168269831A82D5
:10131000BE016F5F7F4F0E945F090F900F90DF91BA
:10132000CF910895EF92FF920F931F93CF93DF9386
:10133000EC017B010C811D816115710511F480E0C8
:1013400016C04115510591F0040F151FB8010E94F8
:10135000E1088823A1F3288139818C819D81B7011F
:10136000820F931F0E9443101D830C8381E0DF9145
:10137000CF911F910F91FF90EF900895FB01448151
:101380005581608171810C949209CF93DF93D82F9E
:10139000C92F6115710569F0DB010D900020E9F797
:1013A000AD0141505109461B570B0E949209811112
:1013B00004C08D2F9C2F0E94B5088D2F9C2FDF918C
:1013C000CF910895CF93DF93DC01ED91FC91EB0178
:1013D000A881B981309711F01097C9F4109759F08E
:1013E000EB012C813D81232B31F02C9130E03195A4
:1013F0002195310914C0309781F0DC0114968D914C
:101400009C911597892B49F0208130E008C0BD01DF
:10141000CF01DF91CF910C943A1020E030E0C90168
:10142000DF91CF910895FC0144815581FB01248116
:1014300035814217530729F40E94E20921E0892BE4
:1014400009F020E0822F0895FC0184819581DB0161
:1014500014964D915C91159784179507A0F0208103
:1014600031812115310579F06D917C9161157105FE
:1014700051F0841B950B820F931F0E943A109C0120
:1014800081E0232B09F080E00895CF92DF92EF9264
:10149000FF920F931F93CF93DF936C01EB017A01BF
:1014A000E60EF71E00E010E00BC06991D601ED9149
:1014B000FC910190F081E02DC6010995080F191FDC
:1014C000CE15DF0591F7C801DF91CF911F910F91E4
:1014D000FF90EF90DF90CF9008956115710581F036
:1014E000DB010D900020E9F7AD0141505109461B89
:1014F000570BDC01ED91FC910280F381E02D099402
:1015000080E090E00895DC01ED91FC910190F08184
:10151000E02D09940F931F93CF93DF93EC016DE0BF
:101520000E94830A8C016AE0CE010E94830A9C011A
:10153000200F311FC901DF91CF911F910F910895A5
:101540000F931F93CF93DF93EC010E946D0A8C01E0
:10155000CE010E948A0A9801280F391FC901DF9124
:10156000CF911F910F91089563E08EEB92E00E945E
:10157000730D21E04BEA54E060E08EEB92E00E94B4
:10158000490D64E08EEB92E00E94760C61E08CE9FC
:1015900092E00E94730D64E08CE992E00E94760C68
:1015A00061E08AE792E00E94730D64E08AE792E0CE
:1015B0000E94760C789408951F920F920FB60F92A6
:1015C00011242F933F934F935F936F937F938F9348
:1015D0009F93AF93BF93EF93FF93E091D802F09165
:1015E000D902309709F00995FF91EF91BF91AF9122
:1015F0009F918F917F916F915F914F913F912F912B
:101600000F900FBE0F901F9018951F920F920FB65C
:101610000F9211242F933F934F935F936F937F9378
:101620008F939F93AF93BF93EF93FF93E091DA0271
:10163000F091DB02309709F00995FF91EF91BF918E
:10164000AF919F918F917F916F915F914F913F915A
:101650002F910F900FBE0F901F9018951F920F9211
:101660000FB60F9211242F933F934F935F936F9375
:101670007F938F939F93AF93BF93EF93FF93E091EB
:10168000D602F091D702309709F00995FF91EF91BA
:10169000BF91AF919F918F917F916F915F914F918A
:1016A0003F912F910F900FBE0F901F9018951F9292
:1016B0000F920FB60F9211242F933F934F935F9386
:1016C0006F937F938F939F93AF93BF93EF93FF930A
:1016D000E0919402F0919502309709F00995FF91FD
:1016E000EF91BF91AF919F918F917F916F915F919A
:1016F0004F913F912F910F900FBE0F901F90189513
:101700001F920F920FB60F9211242F933F934F9376
:101710005F936F937F938F939F93AF93BF93EF9359
:10172000FF93E0919602F0919702309709F00995A6
:10173000FF91EF91BF91AF919F918F917F916F91A9
:101740005F914F913F912F910F900FBE0F901F907F
:1017500018951F920F920FB60F9211242F933F935B
:101760004F935F936F937F938F939F93AF93BF93A9
:10177000EF93FF93E0919202F0919302309709F07A
:101780000995FF91EF91BF91AF919F918F917F91BB
:101790006F915F914F913F912F910F900FBE0F90DE
:1017A0001F9018951F920F920FB60F9211242F932E
:1017B0003F934F935F936F937F938F939F93AF93D9
:1017C000BF93EF93FF93E091B602F091B702309789
:1017D00009F00995FF91EF91BF91AF919F918F9182
:1017E0007F916F915F914F913F912F910F900FBE1D
:1017F0000F901F9018951F920F920FB60F92112401
:101800002F933F934F935F936F937F938F939F9308
:10181000AF93BF93EF93FF93E091B802F091B902B9
:10182000309709F00995FF91EF91BF91AF919F918A
:101830008F917F916F915F914F913F912F910F9079
:101840000FBE0F901F9018951F920F920FB60F9218
:1018500011242F933F934F935F936F937F938F93B5
:101860009F93AF93BF93EF93FF93E091B402F091F6
:10187000B502309709F00995FF91EF91BF91AF91B3
:101880009F918F917F916F915F914F913F912F9198
:101890000F900FBE0F901F9018951F920F920FB6CA
:1018A0000F9211242F933F934F935F936F937F93E6
:1018B0008F939F93AF93BF93EF93FF93E091BC02FD
:1018C000F091BD02309709F00995FF91EF91BF911A
:1018D000AF919F918F917F916F915F914F913F91C8
:1018E0002F910F900FBE0F901F901895DC012C9137
:1018F0006150223039F4673068F4E62FF0E0E9599E
:10190000FE4F06C0693030F4E62FF0E0E259FE4F9A
:10191000208101C020E0DC011A96ED91FC911B971B
:101920008081887F822B80830895CF93DF93EC01A1
:101930006883613011F120F0623009F06CC048C05A
:101940001B821A8286E490E09D838C838EE690E071
:101950009F838E8384E490E09987888785E490E074
:101960009B878A871D861C8687E490E09F878E87E9
:10197000198A188A88E490E022C08FE690E09F835D
:101980008E8385E890E09B838A8384E890E09D8342
:101990008C8380E890E09987888781E890E09B8736
:1019A0008A8789E890E09D878C8788E890E09F8708
:1019B0008E878BE890E0998B888B8AE890E09B8BF0
:1019C0008A8B1D8A1C8A1F8A1E8A82E0898323C013
:1019D0001B821A8282EB90E09D838C8380E790E0EB
:1019E0009F838E8380EB90E09987888781EB90E0DE
:1019F0009B878A871D861C8683EB90E09F878E8756
:101A0000198A188A84EB90E09B8B8A8B1D8A1C8A2A
:101A10001F8A1E8A698360E0CE010E94760CEA81EB
:101A2000FB81309709F01082EC81FD811082198EC4
:101A3000188E1B8E1A8E1D8E1C8E1F8E1E8E19A246
:101A400018A2DF91CF91089551E0411101C050E0FB
:101A50006530F0F4E62FF0E0E958FE4F408147FD95
:101A600017C0DC011696ED91FC911797808121E05B
:101A700030E0042E01C0220F0A94EAF720952823B3
:101A8000852F042E01C0880F0A94EAF7282B2083A3
:101A90000895623099F028F4662341F06130C9F46A
:101AA00009C0633079F06430A1F410C0FC01518F9B
:101AB000408F0FC0FC01538F428F0BC0FC01558F2C
:101AC000448F07C0FC01578F468F03C0FC0151A310
:101AD00040A3452B11F440E003C0222319F041E05C
:101AE0000C94240D0895DC011896ED91FC91199742
:101AF0003081262F23703C7F232B20831A96ED9173
:101B0000FC911B9780816C70660F877E682B6083C9
:101B10000895FC018181681740F59081992311F0A7
:101B2000923011F4813049F0662329F0613029F0B8
:101B3000623031F404C026E003C024E001C022E09A
:101B40000084F185E02D308183E090E0022E01C019
:101B5000880F0A94EAF7809583234370022E01C010
:101B6000440F0A94EAF7842B80830895FC01818155
:101B70006817F8F4611109C0A485B585109709F0BC
:101B80005C930684F785E02D13C0613049F4A08989
:101B9000B189109709F05C930288F389E02D08C0A1
:101BA000623039F4A489B5895C930688F789E02D01
:101BB0004083089560E08EEB92E00E94950C61E016
:101BC0008CE992E00E94950C62E08AE792E00C9426
:101BD000950CA1E21A2EAA1BBB1BFD010DC0AA1F6A
:101BE000BB1FEE1FFF1FA217B307E407F50720F086
:101BF000A21BB30BE40BF50B661F771F881F991F01
:101C00001A9469F760957095809590959B01AC0149
:101C1000BD01CF010895052E97FB16F4009407D05F
:101C200057FD0DD00E94E90D07FC09D07EF4909578
:101C30008095709561957F4F8F4F9F4F0895509578
:101C40004095309521953F4F4F4F5F4F0895EE0FD0
:101C5000FF1F0590F491E02D09940F931F93CF93EC
:101C6000DF938230910510F482E090E0E091E2028F
:101C7000F091E30220E030E0C0E0D0E023C04081FA
:101C8000518148175907A8F04817590761F4828114
:101C90009381209719F09B838A832EC09093E3024F
:101CA0008093E20229C02115310529F0421753071C
:101CB00010F0A90102C0BE01DF0102811381EF0112
:101CC0009A01F8013097D9F62115310509F1281B41
:101CD000390B2430310590F412968D919C91139715
:101CE0006115710521F0FB019383828304C09093F9
:101CF000E3028093E202FD01329644C0FD01E20F4F
:101D0000F31F81939193225031092D933C933AC054
:101D10002091E0023091E102232B41F42091020155
:101D2000309103013093E1022093E0022091000101
:101D3000309101012115310541F42DB73EB7409195
:101D4000040150910501241B350BE091E002F09154
:101D5000E102E217F307A0F42E1B3F0B2817390707
:101D600078F0AC014E5F5F4F2417350748F04E0FF7
:101D70005F1F5093E1024093E0028193919302C070
:101D8000E0E0F0E0CF01DF91CF911F910F91089536
:101D9000EF92FF920F931F93CF93DF93009709F475
:101DA0008FC0DC01129713961C921E921297E0903E
:101DB000E202F090E302E114F10489F42D913C91E8
:101DC0001197280F391F8091E0029091E10282174C
:101DD000930789F5B093E102A093E00271C0E70197
:101DE00020E030E001C0EA01CA17DB0738F44A817D
:101DF0005B819E0141155105B1F722C0BC016250C3
:101E00007109FB01D383C28300811181AC01400FB2
:101E1000511F4C175D0761F448815981400F511FD4
:101E20004E5F5F4F518340834A815B81538342837E
:101E30002115310529F4B093E302A093E20240C0DA
:101E4000F901B383A283E90169917991C60FD71F84
:101E5000AC17BD0779F4DC015E914E91460F571F18
:101E60004E5F5F4F5183408312968D919C911397E3
:101E700093838283A0E0B0E002C0D7017C01F70128
:101E8000828193810097C9F7C70102962081318131
:101E9000820F931F2091E0023091E1022817390749
:101EA00079F4109729F41092E3021092E20204C030
:101EB00013961C921E921297F092E102E092E002B9
:101EC000CDB7DEB7E6E00C947210A0E0B0E0EBE630
:101ED000FFE00C945010EC01009729F4CB010E9414
:101EE0002D0EEC01B8C0DC01A60FB71FFC01329724
:101EF000AE17BF0718F4C0E0D0E0ADC0008111817B
:101F000006171707B0F00530110508F4A4C0C80182
:101F100004978617970708F49EC002501109061B04
:101F2000170B0D931D9371836083CD010E94C80E22
:101F300092C07B01E01AF10A5C01A00EB11EE09193
:101F4000E202F091E302812C912C80E090E04CC001
:101F5000EA15FB05F1F5408151816A0122E0C20ECC
:101F6000D11CCE14DF04A8F19A012E193F09790182
:101F7000690132E0C30ED11C2EEFA22EBB24BA940D
:101F8000AC0EBD1E25E0C216D10478F0428153810B
:101F900013965C934E9312971196FC92EE92F50174
:101FA000718360833A2F2B2F09C00E5F1F4F040FE0
:101FB000151FD5010D931C9332812381009721F0C9
:101FC000FC013283238347C03093E2022093E30273
:101FD00042C0808191818816990608F44C01528193
:101FE0004381CF01E52FF42F309709F0B1CF8091D5
:101FF000E0029091E1028A159B05F1F4861697069E
:10200000D8F48091000190910101009741F48DB7BF
:102010009EB72091040130910501821B930BA817F4
:10202000B90708F068CFB093E102A093E002FE0187
:102030003297718360830FC0CB010E942D0E7C010B
:10204000009709F458CFA801BE010E943110CE01BB
:102050000E94C80EE701CE01CDB7DEB7ECE00C94CC
:102060006C10FB01DC0102C001900D924150504008
:10207000D8F70895FB01DC018D91019080190110C2
:10208000D9F3990B0895FB01DC0101900D9200201A
:10209000E1F708952F923F924F925F926F927F9255
:1020A0008F929F92AF92BF92CF92DF92EF92FF9268
:1020B0000F931F93CF93DF93CDB7DEB7CA1BDB0B14
:1020C0000FB6F894DEBF0FBECDBF09942A883988B9
:1020D00048885F846E847D848C849B84AA84B984C0
:1020E000C884DF80EE80FD800C811B81AA81B981CC
:1020F000CE0FD11D0FB6F894DEBF0FBECDBFED01E0
:10210000089510E0C2E8D0E004C0FE010E94290E4C
:0C2110002296C438D107C9F7F894FFCF1D
:10211C000000E402200010000E0004030208070671
:10212C00053132333435363738392A3023416C6532
:10213C0072746131002A002300416C657274613342
:10214C0000416C65727461320031323334003433C7
:10215C0032310000000000C305450A75057A05A060
:10216C00058E05000000009B051B062106000000E3
:10217C000096050F06150601020304050607010269
:0C218C0000030004050607000102030523
:00000001FF
