:100000000C9443000C946B000C946B000C946B00EC
:100010000C946B000C946B000C946B000C946B00B4
:100020000C946B000C94360F0C945F0F0C94880F9B
:100030000C942C100C94B10F0C94DA0F0C94031048
:100040000C94BB0E0C94E40E0C940D0F0C946B00EE
:100050000C94530C0C94060A0C946B000C946B00DB
:100060000C946B000C946B000C946B000C946B0064
:100070000C94280C0C94540A0C946B0002012D0370
:100080007E0CB911560311241FBECFEFD0E1DEBFA5
:10009000CDBF11E0A0E0B1E0EAE3FBE202C00590D1
:1000A0000D92AC38B107D9F713E0ACE8B1E001C06C
:1000B0001D92AD30B107E1F710E0C4E8D0E004C014
:1000C0002297FE010E943813CE37D107C9F70E944C
:1000D000880C0C9490150C94000081E991E00E942A
:1000E0008F0C8DEC91E00E948F0C86EC91E00E94C9
:1000F0008F0C8FEB91E00C948F0C0F931F93CF9389
:10010000DF93EB018A0142E0BC018BE00E94040610
:1001100042E0BE0189E00E94040642E0B8018DE0A1
:10012000DF91CF911F910F910C9404060F931F93B1
:10013000CF93DF93CDB7DEB765970FB6F894DEBFE8
:100140000FBECDBF809106010E94120590E09093F2
:100150008D0180938C010197F9F461E08091080191
:100160000E94360564E271E087E492E00E947F0E0F
:1001700020E030E0A90167E870E080911D010E9455
:10018000CA0764EF71E080E090E00E94E205809190
:100190001D010E94990705C060E0809108010E943E
:1001A000360580918E01811107C088E991E00E9497
:1001B0006E03882391F001C0FFCF682FCE010F9608
:1001C0000E94580DBE01615F7F4F81E991E00E945E
:1001D0009D0DCE010F960E948F0C80919001882377
:1001E00029F16CE271E0CE010F960E94000DBE0174
:1001F000615F7F4F81E991E00E94030E182FCE01CD
:100200000F960E948F0C112389F01092900140E00C
:1002100050E06FEF70E08FEF90E00E947D00429819
:100220006FE271E081E991E00E943E0D6EE271E0C3
:10023000CE010F960E94000DBE01615F7F4F81E9E4
:1002400091E00E94030E882361F011E02091950156
:10025000309196018091CA019091CB01821793074A
:1002600008F410E0CE010F960E948F0C112331F09C
:100270006FE271E081E991E00E943E0D8091900172
:100280008823A1F00E94D0050091BA011091BB0112
:100290002091BC013091BD01601B710B820B930B4F
:1002A00068397A438105910508F06EC18091CA01D1
:1002B0009091CB01019620919501309196012817DC
:1002C000390709F087C066EC71E0CE0108960E94FC
:1002D000340D6EE271E0CE0108960E94A40DBC01BF
:1002E00081E991E00E94F20D882321F08091900134
:1002F0008823D9F06DEC71E0CE0101960E94340D97
:100300006EE271E0CE0101960E94A40DBC0181E96C
:1003100091E00E94F20D882309F458C111E0809108
:100320009001882309F453C151C111E0CE01089610
:100330000E948F0C112361F1429A81E08093900119
:100340000E94D0056093BA017093BB018093BC01F9
:100350009093BD014FEF50E060E070E08FEF90E0D0
:100360000E947D0020E030E0A90160E971E0809109
:100370001D010E94CA0768EE73E080E090E00E94D1
:10038000E20580911D010E94990710928F0122C001
:1003900080918F018F5F80938F016FE271E081E91F
:1003A00091E00E943E0D80918F01882399F020E01A
:1003B00030E0A90167E870E080911D010E94CA0742
:1003C00068EE73E080E090E00E94E20580911D01FC
:1003D0000E94990780918F01833020F16FE271E0D4
:1003E00081E991E00E943E0D10928F0160E371E07F
:1003F00087E492E00E947F0E4FEF50E06FEF70E0D5
:1004000080E090E00E947D0060E375E780E090E08E
:100410000E94E20540E050E06FEF70E08FEF90E067
:100420000E947D008091BE0181111CC0349B5DC083
:100430000E94D0056093BA017093BB018093BC0108
:100440009093BD0111E01093BE014FEF50E060E0CA
:1004500070E08FEF90E00E947D0010939001109269
:100460008F0143C0349B35C00E94D0050091BA0172
:100470001091BB012091BC013091BD01601B710B3B
:10048000820B930B603177428105910570F14FEF3C
:1004900050E06FEF70E080E090E00E947D0020E08F
:1004A00030E0A90167E870E080911D010E94CA0751
:1004B00068EE73E080E090E00E94E20580911D010B
:1004C0000E94990768E371E087E492E00E947F0E42
:1004D0000CC040E050E06FEF70E08FEF90E00E94C2
:1004E0007D00109290011092BE0180E00E946B0589
:1004F000BC01882777FD8095982F0E94CE112DECA6
:100500003CEC4CEA50E40E947E1220E030E040E8EF
:100510005AE30E947E12FB01462F5F2F682F792F2E
:100520004093B6015093B7016093B8017093B9013D
:1005300020E030E040E85FE3BF010E94C8111816D8
:10054000DCF0479A60E471E087E492E00E947F0E5D
:1005500020E030E0A90167E870E080911D010E9471
:10056000CA0760E971E080E090E00E94E2058091B6
:100570001D010E94990701C0479864E670E080E081
:1005800090E00E94E20528C04FEF50E06FEF70E06E
:1005900080E090E00E947D0068E371E087E492E0F3
:1005A0000E947F0E20E030E0A90167E870E08091B2
:1005B0001D010E94CA0768EC70E080E090E00E9494
:1005C000E20580911D010E94990770CE10E0CE01D6
:1005D00001960E948F0CAACE65960FB6F894DEBFE6
:1005E0000FBECDBFDF91CF911F910F910895EF9274
:1005F0000F93E12C01E028E040E855E260E070E074
:1006000087E492E00E94260B6FE271E081E991E0BD
:100610000E943E0D1092900110928F0110928E0157
:100620001092BE013B9A399A3D9A3C9840E050E0C6
:100630006FEF70E08FEF90E00E947D0061E08091AD
:1006400008010E94E40460E0809106010E94E40435
:100650003F9A50980F91EF900895EF920F936FE2A9
:1006600071E08FEB91E00E94000D68E471E086EC90
:1006700091E00E94000D6DE471E08DEC91E00E942C
:10068000000D83E0E82E04E02AE031E04DE051E087
:1006900061E171E088E991E00E94B8046FE271E0E5
:1006A00081E991E00F91EF900C94000D0C946D0096
:1006B000DC0118968D919C9119978617970769F020
:1006C00019967C936E9318975C96ED91FC915D97CB
:1006D000309719F01A968C91099408954F925F9271
:1006E0006F927F92AF92BF92CF92DF92EF92FF9282
:1006F0000F931F93CF93DF93EC01A12CA8C00A2D79
:1007000010E0EC81FD81E00FF11F60E080810E942C
:100710003605B12C68018EC0EB2CF12C8F81E8815D
:10072000F981EC0DFD1DB89EE00DF11D11249A8597
:10073000808198133CC00E94D0054E845F846888F5
:10074000798864197509860997094A8C5B8C612C34
:10075000712C641575058605970550F0EA81FB81BB
:10076000EE0DFF1D80810E941205882309F498C0B8
:100770000E94D0054E845F84688879886419750961
:1007800086099709488C598C612C712C6415750564
:100790008605970508F493C0EA81FB81EB0DF11DF6
:1007A00080810E941205813009F089C07FC00E94BB
:1007B000D0054E845F846888798864197509860934
:1007C0009709488C598C612C712C64157505860528
:1007D000970578F1EA81FB81EE0DFF1D80810E9473
:1007E0001205811126C0EC81FD81E00FF11F61E04F
:1007F00080810E9436052F812E9DC0012F9D900D76
:100800001124E881F981EC0DFD1DE80FF91FF0803E
:100810008E859F85A889B9898A8B9B8BAC8BBD8B74
:100820000E94D0056E877F87888B998BF11015C049
:1008300005C0B3948E81B81608F46ECFEC81FD81AB
:10084000E00FF11F61E080810E943605A3948F8143
:10085000A81608F454CF80E040C08B85F81239C048
:100860000E94D0050A891B892C893D89601B710B68
:10087000820B930B0E891F8920E030E006171707C3
:100880002807390710F525C081E090E09D878C8707
:10089000FA8661E070E0CE010E9458038A851DC08F
:1008A00063E070E0CE010E94580362CF62E070E026
:1008B000CE010E9458038A858B871A86BFCF888510
:1008C0009985039709F0B5CFB9CF8C859D850196A1
:1008D000DDCF8A85F812D8CFBECFDF91CF911F919F
:1008E0000F91FF90EF90DF90CF90BF90AF907F90EF
:1008F0006F905F904F900895FF920F931F93CF9347
:10090000DF93EC01F12C13C00F2D10E0EA81FB8185
:10091000E00FF11F60E080810E94E404EA81FB8126
:10092000E00FF11F61E080810E943605F3948E8113
:10093000F81650F3F12C13C00F2D10E0EC81FD815F
:10094000E00FF11F61E080810E94E404EC81FD81F1
:10095000E00FF11F61E080810E943605F3948F81E2
:10096000F81650F3DF91CF911F910F91FF900895EA
:10097000EF920F93FC0153834283358324830683D4
:10098000E7827183608316861786108A118A128A1D
:10099000138A148A158A8CE291E0978B868B82E306
:1009A00090E0918F808F88EE93E0938F828F158EE9
:1009B000148E128613861186108615861486CF0132
:1009C0000F91EF900C947C04982F977021E030E009
:1009D000092E01C0220F0A94EAF78695869586951E
:1009E00081F0813089F0823091F08330D1F412C0EF
:1009F00080812095822302C08081822B80839FBFCB
:100A00000895EAE2F0E008C0E7E2F0E005C0E4E2C1
:100A1000F0E002C0E1E2F0E09FB7F894662341F312
:100A2000EBCF0895982F977021E030E001C0220F9E
:100A30009A95EAF786958695869539F0813041F04A
:100A4000823049F0833051F00895E9E2F0E008C0C7
:100A5000E6E2F0E005C0E3E2F0E002C0E0E2F0E050
:100A60009081922381E009F480E00895982F977097
:100A700021E030E0092E01C0220F0A94EAF78695A2
:100A80008695869581F0813089F0823091F08330AF
:100A9000D1F412C080812095822302C08081822BF4
:100AA00080839FBF0895EBE2F0E008C0E8E2F0E049
:100AB00005C0E5E2F0E002C0E2E2F0E09FB7F894A2
:100AC000662341F3EBCF089580E480937C0087E8B0
:100AD00080937A000895CF93DF931F92CDB7DEB74E
:100AE00090911F01913031F489830E946405109226
:100AF0001F01898187702091200140E4249F90018B
:100B00001124822B80937C0080917A0080648093F2
:100B10007A0080917A0086FDFCCF20917800309198
:100B20007900932F80E0FC01E22B9F01C9010F9017
:100B3000DF91CF9108958091D5019091D601A09138
:100B4000D701B091D8013091D401232F2D5F2D37DB
:100B500020F40196A11DB11D05C0232F2A5702962E
:100B6000A11DB11D2093D4018093D5019093D6018E
:100B7000A093D701B093D8018091D9019091DA0167
:100B8000A091DB01B091DC010196A11DB11D809304
:100B9000D9019093DA01A093DB01B093DC010895B1
:100BA0000F931F938FB7F8940091D5011091D60140
:100BB0002091D7013091D8018FBFB801C9011F9191
:100BC0000F9108958F929F92AF92BF92CF92DF9232
:100BD000EF92FF926B017C010E94D0054B015C01FA
:100BE0000E94D005681979098A099B096C157D0551
:100BF0008E059F05A8F3FF90EF90DF90CF90BF90F8
:100C0000AF909F908F9008951F93CF93DF93182FED
:100C1000EB01209721F460E00E94360540E014309B
:100C200079F1153029F11630E9F1173099F11331C6
:100C300069F0143109F044C011C060E001C061E006
:100C4000812FDF91CF911F910C94360560E087EEE4
:100C500092E00E946811AE0160E007C061E087EE9B
:100C600092E00E946811AE0161E087EE92E023C03D
:100C700060E085EC92E00E946811AE0160E007C080
:100C800061E085EC92E00E946811AE0161E085ECC4
:100C900092E011C060E083EA92E00E946811AE0128
:100CA00060E007C061E083EA92E00E946811AE0153
:100CB00061E083EA92E0DF91CF911F910C9495114E
:100CC000C038D10508F4B9CFBACF8091E001909136
:100CD000E101A091E201B091E301892B8A2B8B2BDA
:100CE00051F19091DD01E091DE01F091DF01808111
:100CF000892780838091E0019091E101A091E20138
:100D0000B091E301181619061A061B0644F58091E6
:100D1000E0019091E101A091E201B091E30101971E
:100D2000A109B1098093E0019093E101A093E20150
:100D3000B093E301089540E061E083EA92E00E940D
:100D400003112091DD01E091DE01F091DF0180814E
:100D500090E030E02095309582239323808308959E
:100D60008091E7019091E801A091E901B091EA0139
:100D7000892B8A2B8B2B51F19091E401E091E501B5
:100D8000F091E6018081892780838091E70190912D
:100D9000E801A091E901B091EA01181619061A06B6
:100DA0001B0644F58091E7019091E801A091E901CB
:100DB000B091EA010197A109B1098093E7019093ED
:100DC000E801A093E901B093EA01089540E061E0F1
:100DD00085EC92E00E9403112091E401E091E5018D
:100DE000F091E601808190E030E0209530958223FB
:100DF0009323808308951F93CF93DF93182F8091BF
:100E00002101A2E2B1E0ED0108C09991911305C062
:100E1000F0E0E458FF4FC49187C0EC2FEA1BE817BD
:100E2000A0F320E030E012C0A9019D912F5F3F4F59
:100E30009F3F61F4DA01AE5DBE4F1C93F0E0E458D1
:100E4000FF4FC491CF3F31F4CFEF6EC0E22F281790
:100E500058F3FACFC13021F0C23009F065C033C079
:100E600064E085EC92E00E94521160E085EC92E033
:100E70000E945510183068F0812F8850883060F03B
:100E80008850883060F08850883060F422E230E08A
:100E90000BC02BE230E008C028E230E005C025E2BC
:100EA00030E002C020E030E03093E6012093E5011D
:100EB000177021E030E0012E01C0220F0A94EAF7FA
:100EC0002093E40131C062E083EA92E00E94521173
:100ED00060E083EA92E00E945510183068F0812F9C
:100EE0008850883060F08850883060F088508830B2
:100EF00060F422E230E00BC02BE230E008C028E2D0
:100F000030E005C025E230E002C020E030E0309360
:100F1000DF012093DE01177021E030E001C0220FD5
:100F20001A95EAF72093DD018C2FDF91CF911F9165
:100F30000895CF93C82F809122018C1307C0ECE74E
:100F4000F0E0E4918FEF8093220101C0EFEF8091F8
:100F500023018C1306C0EDE7F0E0E4918FEF80935E
:100F60002301E13019F0E23081F407C020E040E0D5
:100F700050E061E085EC92E006C020E040E050E007
:100F800061E083EA92E00E94281160E08C2FCF910B
:100F90000C9436052F923F924F925F926F927F9200
:100FA0008F929F92AF92BF92CF92DF92EF92FF9279
:100FB0001F93CF93DF9300D000D0CDB7DEB7F82ECC
:100FC0001B0129013A0161157105B9F40F900F90C9
:100FD0000F900F90DF91CF911F91FF90EF90DF90D6
:100FE000CF90BF90AF909F908F907F906F905F90C9
:100FF0004F903F902F900C9499070E94FB06182F5A
:1010000061E08F2D0E94E40411160CF037C14101FC
:10101000A12CB12C60E072E18AE790E0A501940177
:101020000E940E13123009F0A5C029833A834B8326
:101030005C8369017A0181E0C81AD108E108F108EE
:10104000EFEFCE16D104E104F10409F008F484C0F6
:1010500060E472E48FE090E0A50194010E940E1319
:1010600069017A01F1E0CF1AD108E108F1088FEFA8
:10107000C816D104E104F10409F008F46FC060E976
:1010800070ED83E090E0A50194010E940E136901C8
:101090007A01E1E0CE1AD108E108F108FFEFCF169E
:1010A000D104E104F10409F008F45AC068E478EED0
:1010B00081E090E0A50194010E940E1369017A017C
:1010C00081E0C81AD108E108F108EFEFCE16D1048B
:1010D000E104F10409F008F445C064E274EF80E033
:1010E00090E0A50194010E940E1369017A01F1E0DC
:1010F000CF1AD108E108F1088FEFC816D104E10436
:10110000F10491F188F162E17AE780E090E0A501D5
:1011100094010E940E1369017A01E1E0CE1AD10810
:10112000E108F108FFEFCF16D104E104F104F1F07A
:10113000E8F069817A818B819C8120E034E040E095
:1011400050E00E940E1369017A0181E0C81AD108AB
:10115000E108F10867E00BC061E009C062E007C088
:1011600063E005C064E003C065E001C066E083EAB7
:1011700092E023C069017A01E1E0CE1AD108E108CA
:10118000F108C114D104F1E0EF06F10488F068E43D
:1011900078EE81E090E0A50194010E940E136901B0
:1011A0007A0181E0C81AD108E108F10864E001C0C1
:1011B00061E0113021F485EC92E00E945510141486
:1011C00015041604170484F4D101AA0FBB1FA30150
:1011D00092010E94E11228EE33E040E050E00E94CC
:1011E0000E1349015A0104C088248A94982C540192
:1011F000113021F0123009F041C015C0A60160E0A5
:1012000085EC92E00E9495118092E7019092E801AE
:10121000A092E901B092EA0121E040EB56E061E0E2
:1012200085EC92E014C0A60160E083EA92E00E949F
:1012300095118092E0019092E101A092E201B092BA
:10124000E30121E045E656E061E083EA92E00F9099
:101250000F900F900F90DF91CF911F91FF90EF9023
:10126000DF90CF90BF90AF909F908F907F906F90C6
:101270005F904F903F902F900C9428110F900F90FB
:101280000F900F90DF91CF911F91FF90EF90DF9023
:10129000CF90BF90AF909F908F907F906F905F9016
:1012A0004F903F902F900895FC0120893189C9010A
:1012B0000895DC0150962D913C915197232B49F0D4
:1012C0005496ED91FC915597E80FF91F268930E06F
:1012D00002C02FEF3FEFC9010895FC01118A108A67
:1012E000158A148A138A128A0895FC012481358193
:1012F000C9010895FC0124813581C9010895FC01CB
:1013000080899189892BD1F03FB7F89480899189A0
:101310000197918B808B84899589DF01A80FB91F74
:1013200056962C910196803291051CF4958B848BF6
:1013300002C0158A148A3FBF30E002C02FEF3FEF92
:10134000C9010895EF92FF921F93CF93DF931F92ED
:10135000CDB7DEB77C01D701DA968D919C91DB97F2
:101360004097C8F71FB7F894D696ED91FC91D797A0
:101370000190F081E02DC701C696698309956981C6
:101380004097C8F4F70182AD93AD019693AF82AF59
:1013900084AD95ADE80FF91FE05CFF4F60830196C7
:1013A000D701DD969C938E93DC97409724F0DD96D1
:1013B0001C921E92DC97F701EA5AFF4F0190F081D0
:1013C000E02D8081806280831FBF81E090E00F90DC
:1013D000DF91CF911F91FF90EF900895665F7F4F4F
:1013E000680F791FCB010895665F7F4F680F791FE3
:1013F000CB010895665F7F4F680F791FCB01089579
:10140000665F7F4F680F791FCB0108951F920F927F
:101410000FB60F9211242F938F939F93AF93BF9387
:10142000EF93FF938091810290918202892B21F1A9
:10143000E091A102F091A20280918102909182023A
:10144000019790938202809381028091850290910E
:101450008602DC01A358BD4F1A962C91019680316B
:1014600091052CF4909386028093850204C010921B
:1014700086021092850220838091810290918202DF
:10148000892B31F4E0919D02F0919E0288E98083DE
:10149000FF91EF91BF91AF919F918F912F910F90FD
:1014A0000FBE0F901F9018951F920F920FB60F92BC
:1014B00011242F938F939F93AF93BF93EF93FF9339
:1014C0008091250290912602892B21F1E09145021D
:1014D000F091460280912502909126020197909307
:1014E0002602809325028091290290912A02DC0134
:1014F000AF5DBD4F1A962C910196803191052CF469
:1015000090932A028093290204C010922A0210921A
:10151000290220838091250290912602892B31F4A3
:10152000E0914102F091420288E98083FF91EF91BE
:10153000BF91AF919F918F912F910F900FBE0F9000
:101540001F901895FC01262F1382128248EE53E05B
:1015500060E070E0448355836683778386E591E09D
:101560009183808386E691E09587848780E290E08E
:1015700097878687118A108A158A148A138A128A95
:1015800080E791E097AB86AB80E190E091AF80AFD0
:1015900013AE12AE17AE16AE15AE14AE222321F066
:1015A000213009F052C028C0DF01A05BBF4F85EC9D
:1015B00090E08D939C93DF01AE5ABF4F84EC90E096
:1015C0008D939C93DF01AC5ABF4F80EC90E08D93DC
:1015D0009C93DF01AA5ABF4F81EC90E08D939C93BE
:1015E000DF01A85ABF4F82EC90E08D939C93E65A9E
:1015F000FF4F86EC90E027C0DF01A05BBF4F8DEC72
:1016000090E08D939C93DF01AE5ABF4F8CEC90E03D
:101610008D939C93DF01AC5ABF4F88EC90E08D9383
:101620009C93DF01AA5ABF4F89EC90E08D939C9365
:10163000DF01A85ABF4F8AEC90E08D939C93E65A45
:10164000FF4F8EEC90E09183808308953F924F92FC
:101650005F926F927F928F929F92AF92BF92CF9242
:10166000DF92EF92FF920F931F93CF93DF93EC01E2
:101670004A015B01122F3E2C60E072E18AE790E0A4
:10168000A50194010E94EC1269017A0184E0C80E60
:10169000D11CE11CF11C83E0F694E794D794C79425
:1016A0008A95D1F760E074E284EF90E0A50194019F
:1016B0000E94EC1229013A0194E0490E511C611C70
:1016C000711C93E076946794579447949A95D1F758
:1016D000A30192014427552760E874E88EE190E069
:1016E0000E940E135901A818B908B7FE03C0B1949F
:1016F000A194B108A70196014427552760E472E43C
:101700008FE090E00E940E132819390937FF03C0BB
:10171000319521953109FE01EC5AFF4F0190F0817E
:10172000E02DA216B3063CF482E08083620181E0E2
:10173000C81AD10804C0108291E0C91AD108163025
:10174000C1F018F4153099F405C0173029F019309C
:1017500071F404C080E00EC084E00CC0FE01EA5ABF
:10176000FF4F0190F081E02D80818460808386E0CE
:1017700001C082E0023009F4886091E0391621F05E
:1017800092E0391204C002C0806301C08062FE0191
:10179000E85AFF4F0190F081E02D8083FE01E05B6D
:1017A000FF4F0190F081E02DD082FE01EE5AFF4FF5
:1017B0000190F081E02DC082CA5ADF4FE881F981A3
:1017C00088E98083DF91CF911F910F91FF90EF9077
:1017D000DF90CF90BF90AF909F908F907F906F9051
:1017E0005F904F903F9008950F931F93CF93DF9397
:1017F0001F92CDB7DEB78C01DC01ED91FC91019019
:10180000F081E02D6983099569818097D0F4F80112
:101810008481958101969583848386819781E80FE1
:10182000F91F628701968032910534F4D80117962A
:101830009C938E93169703C0F8011782168281E05D
:1018400001C080E00F90DF91CF911F910F9108951B
:101850001F920F920FB60F9211242F933F934F9325
:101860005F936F937F938F939F93AF93BF93EF9308
:10187000FF93E0914502F0914602608187EF91E08D
:101880000E94F40BFF91EF91BF91AF919F918F91C7
:101890007F916F915F914F913F912F910F900FBE6C
:1018A0000F901F9018951F920F920FB60F92112450
:1018B0002F933F934F935F936F937F938F939F9358
:1018C000AF93BF93EF93FF93E091A102F091A20237
:1018D000608183E592E00E94F40BFF91EF91BF914C
:1018E000AF919F918F917F916F915F914F913F91B8
:1018F0002F910F900FBE0F901F90189560E087E416
:1019000092E00E94A20A61E08BEE91E00C94A20AA0
:101910000E94930E0E94F7020E949600FDCFFC01E8
:10192000808191810C94D713CF93DF93EC01888150
:101930009981009711F00E94D713198218821D8295
:101940001C821B821A82DF91CF9108950F931F93FF
:10195000CF93DF93EC018B016F5F7F4F888199817B
:101960000E947414009731F0998388831B830A8343
:1019700081E001C080E0DF91CF911F910F91089528
:10198000CF93DF93EC0188819981892B31F08A8193
:101990009B818617970708F00CC0CE010E94A60C09
:1019A000882349F08C819D81892B19F4E881F98184
:1019B000108281E001C080E0DF91CF910895EF9225
:1019C000FF920F931F93CF93DF93EC017B018A016A
:1019D000BA010E94C00C811104C0CE010E94940C77
:1019E00007C01D830C83B701888199810E9452151D
:1019F000CE01DF91CF911F910F91FF90EF9008954D
:101A0000DC0111961C921E9213961C921E92129744
:101A100015961C921E92149716961C9261157105CC
:101A200059F0DB010D900020E9F7AD01415051095B
:101A3000461B570B0C94DF0C0895CF93DF93EC01FA
:101A4000FB018617970761F060817181611571054F
:101A500029F0448155810E94DF0C02C00E94940C41
:101A6000CE01DF91CF910895FC0111821082138283
:101A700012821582148216820C941D0DCF93DF936F
:101A8000D82FC92F6115710561F0DB010D90002081
:101A9000E9F7AD0141505109461B570B0E94DF0C7D
:101AA00002C00E94940C8D2F9C2FDF91CF9108953E
:101AB000CF93DF9300D0CDB7DEB7FC011182108247
:101AC0001382128215821482168269831A82BE01E1
:101AD0006F5F7F4F0E943E0D0F900F90DF91CF916F
:101AE0000895EF92FF920F931F93CF93DF93EC0132
:101AF0007B010C811D816115710511F480E016C018
:101B00004115510591F0040F151FB8010E94C00C3A
:101B10008823A1F3288139818C819D81B701820FAF
:101B2000931F0E9452151D830C8381E0DF91CF919A
:101B30001F910F91FF90EF900895FB014481558113
:101B4000608171810C94710DCF93DF93D82FC92FD1
:101B50006115710569F0DB010D900020E9F7AD0119
:101B600041505109461B570B0E94710D811104C051
:101B70008D2F9C2F0E94940C8D2F9C2FDF91CF9145
:101B80000895CF93DF93DC01ED91FC91EB01A881E7
:101B9000B981309711F01097C9F4109759F0EB0103
:101BA0002C813D81232B31F02C9130E03195219512
:101BB000310914C0309781F0DC0114968D919C910D
:101BC0001597892B49F0208130E008C0BD01CF0175
:101BD000DF91CF910C94491520E030E0C901DF91ED
:101BE000CF910895FC0144815581FB012481358109
:101BF0004217530729F40E94C10D21E0892B09F0F7
:101C000020E0822F0895FC0184819581DB011496E8
:101C10004D915C91159784179507A0F02081318133
:101C20002115310579F06D917C916115710551F0A7
:101C3000841B950B820F931F0E9449159C0181E024
:101C4000232B09F080E00895CF92DF92EF92FF926C
:101C50000F931F93CF93DF936C01EB017A01E60E94
:101C6000F71E00E010E00BC06991D601ED91FC91E8
:101C70000190F081E02DC6010995080F191FCE15BE
:101C8000DF0591F7C801DF91CF911F910F91FF9070
:101C9000EF90DF90CF9008956115710581F0DB0121
:101CA0000D900020E9F7AD0141505109461B570B3B
:101CB000DC01ED91FC910280F381E02D099480E03C
:101CC00090E00895DC01ED91FC910190F081E02D10
:101CD00009940F931F93CF93DF93EC016DE00E9463
:101CE000620E8C016AE0CE010E94620E9C01200F00
:101CF000311FC901DF91CF911F910F9108950F936B
:101D00001F93CF93DF93EC010E944C0E8C01CE0108
:101D10000E94690E9801280F391FC901DF91CF91E8
:101D20001F910F91089563E087EE92E00E94521197
:101D300021E04BE955E060E087EE92E00E94281137
:101D400064E087EE92E00E94551061E085EC92E03D
:101D50000E94521164E085EC92E00E94551061E00F
:101D600083EA92E00E94521164E083EA92E00E94CA
:101D70005510789408951F920F920FB60F92112468
:101D80002F933F934F935F936F937F938F939F9383
:101D9000AF93BF93EF93FF93E0910103F0910203A0
:101DA000309709F00995FF91EF91BF91AF919F9105
:101DB0008F917F916F915F914F913F912F910F90F4
:101DC0000FBE0F901F9018951F920F920FB60F9293
:101DD00011242F933F934F935F936F937F938F9330
:101DE0009F93AF93BF93EF93FF93E0910303F09121
:101DF0000403309709F00995FF91EF91BF91AF91DE
:101E00009F918F917F916F915F914F913F912F9112
:101E10000F900FBE0F901F9018951F920F920FB644
:101E20000F9211242F933F934F935F936F937F9360
:101E30008F939F93AF93BF93EF93FF93E091FF0234
:101E4000F0910003309709F00995FF91EF91BF9150
:101E5000AF919F918F917F916F915F914F913F9142
:101E60002F910F900FBE0F901F9018951F920F92F9
:101E70000FB60F9211242F933F934F935F936F935D
:101E80007F938F939F93AF93BF93EF93FF93E091D3
:101E9000BD02F091BE02309709F00995FF91EF91D4
:101EA000BF91AF919F918F917F916F915F914F9172
:101EB0003F912F910F900FBE0F901F9018951F927A
:101EC0000F920FB60F9211242F933F934F935F936E
:101ED0006F937F938F939F93AF93BF93EF93FF93F2
:101EE000E091BF02F091C002309709F00995FF918F
:101EF000EF91BF91AF919F918F917F916F915F9182
:101F00004F913F912F910F900FBE0F901F901895FA
:101F10001F920F920FB60F9211242F933F934F935E
:101F20005F936F937F938F939F93AF93BF93EF9341
:101F3000FF93E091BB02F091BC02309709F0099544
:101F4000FF91EF91BF91AF919F918F917F916F9191
:101F50005F914F913F912F910F900FBE0F901F9067
:101F600018951F920F920FB60F9211242F933F9343
:101F70004F935F936F937F938F939F93AF93BF9391
:101F8000EF93FF93E091DF02F091E002309709F0C8
:101F90000995FF91EF91BF91AF919F918F917F91A3
:101FA0006F915F914F913F912F910F900FBE0F90C6
:101FB0001F9018951F920F920FB60F9211242F9316
:101FC0003F934F935F936F937F938F939F93AF93C1
:101FD000BF93EF93FF93E091E102F091E20230971B
:101FE00009F00995FF91EF91BF91AF919F918F916A
:101FF0007F916F915F914F913F912F910F900FBE05
:102000000F901F9018951F920F920FB60F921124E8
:102010002F933F934F935F936F937F938F939F93F0
:10202000AF93BF93EF93FF93E091DD02F091DE0257
:10203000309709F00995FF91EF91BF91AF919F9172
:102040008F917F916F915F914F913F912F910F9061
:102050000FBE0F901F9018951F920F920FB60F9200
:1020600011242F933F934F935F936F937F938F939D
:102070009F93AF93BF93EF93FF93E091E502F091AD
:10208000E602309709F00995FF91EF91BF91AF916A
:102090009F918F917F916F915F914F913F912F9180
:1020A0000F900FBE0F901F901895DC012C9161507E
:1020B000223039F4673068F4E62FF0E0EA58FE4F3A
:1020C00006C0693030F4E62FF0E0E358FE4F20817F
:1020D00001C020E0DC011A96ED91FC911B978081F4
:1020E000887F822B80830895CF93DF93EC016883F0
:1020F000613011F120F0623009F06CC048C01B82E1
:102100001A8286E490E09D838C838EE690E09F8324
:102110008E8384E490E09987888785E490E09B87AC
:102120008A871D861C8687E490E09F878E87198AA0
:10213000188A88E490E022C08FE690E09F838E8327
:1021400085E890E09B838A8384E890E09D838C837C
:1021500080E890E09987888781E890E09B878A876C
:1021600089E890E09D878C8788E890E09F878E873C
:102170008BE890E0998B888B8AE890E09B8B8A8B28
:102180001D8A1C8A1F8A1E8A82E0898323C01B82C3
:102190001A8282EB90E09D838C8380E790E09F839E
:1021A0008E8380EB90E09987888781EB90E09B8716
:1021B0008A871D861C8683EB90E09F878E87198A0D
:1021C000188A84EB90E09B8B8A8B1D8A1C8A1F8A5D
:1021D0001E8A698360E0CE010E945510EA81FB816E
:1021E000309709F01082EC81FD811082198E188ED3
:1021F0001B8E1A8E1D8E1C8E1F8E1E8E19A218A26B
:10220000DF91CF91089551E0411101C050E0653058
:10221000F0F4E62FF0E0EA57FE4F408147FD17C08B
:10222000DC011696ED91FC911797808121E030E05A
:10223000042E01C0220F0A94EAF720952823852F47
:10224000042E01C0880F0A94EAF7282B20830895F2
:10225000623099F028F4662341F06130C9F409C076
:10226000633079F06430A1F410C0FC01518F408FCD
:102270000FC0FC01538F428F0BC0FC01558F448F60
:1022800007C0FC01578F468F03C0FC0151A340A338
:10229000452B11F440E003C0222319F041E00C94D7
:1022A00003110895DC011896ED91FC911997308186
:1022B000262F23703C7F232B20831A96ED91FC91CF
:1022C0001B9780816C70660F877E682B60830895F2
:1022D000FC018181681740F59081992311F09230BB
:1022E00011F4813049F0662329F0613029F0623021
:1022F00031F404C026E003C024E001C022E00084E1
:10230000F185E02D308183E090E0022E01C0880F3E
:102310000A94EAF7809583234370022E01C0440F8C
:102320000A94EAF7842B80830895FC018181681761
:10233000F8F4611109C0A485B585109709F05C9384
:102340000684F785E02D13C0613049F4A089B18976
:10235000109709F05C930288F389E02D08C0623081
:1023600039F4A489B5895C930688F789E02D408308
:10237000089560E087EE92E00E94741061E085ECC1
:1023800092E00E94741062E083EA92E00C94741070
:1023900040D008F481E00895E89409C097FB3EF42A
:1023A00090958095709561957F4F8F4F9F4F9923A2
:1023B000A9F0F92F96E9BB279395F6958795779520
:1023C0006795B795F111F8CFFAF4BB0F11F460FFE0
:1023D0001BC06F5F7F4F8F4F9F4F16C0882311F038
:1023E00096E911C0772321F09EE8872F762F05C04C
:1023F000662371F096E8862F70E060E02AF09A95E7
:10240000660F771F881FDAF7880F9695879597F9DB
:102410000895990F0008550FAA0BE0E8FEEF161675
:102420001706E807F907C0F012161306E407F507C8
:1024300098F0621B730B840B950B39F40A2661F03C
:10244000232B242B252B21F408950A2609F4A140DF
:10245000A6958FEF811D811D089597F99F6780E8EC
:1024600070E060E008959FEF80EC089500240A94E6
:102470001616170618060906089500240A9412165F
:102480001306140605060895092E0394000C11F492
:10249000882352F0BB0F40F4BF2B11F460FF04C03F
:1024A0006F5F7F4F8F4F9F4F089557FD9058440F98
:1024B000551F59F05F3F71F04795880F97FB991FA3
:1024C00061F09F3F79F08795089512161306140660
:1024D000551FF2CF4695F1DF08C0161617061806ED
:1024E000991FF1CF86957105610508940895E894C8
:1024F000BB2766277727CB0197F908950BD0C4CF68
:10250000B5DF28F0BADF18F0952309F0A6CFABCFDE
:102510001124EECFCADFA0F3959FD1F3950F50E0C1
:10252000551F629FF001729FBB27F00DB11D639F85
:10253000AA27F00DB11DAA1F649F6627B00DA11D2B
:10254000661F829F2227B00DA11D621F739FB00DD1
:10255000A11D621F839FA00D611D221F749F332741
:10256000A00D611D231F849F600D211D822F762FDA
:102570006A2F11249F5750408AF0E1F088234AF0D7
:10258000EE0FFF1FBB1F661F771F881F9150504023
:10259000A9F79E3F510570F060CFAACF5F3FECF3E3
:1025A000983EDCF3869577956795B795F795E7950F
:1025B0009F5FC1F7FE2B880F911D9695879597F920
:1025C00008950E942A13A59F900DB49F900DA49F7B
:1025D000800D911D11240895A1E21A2EAA1BBB1B88
:1025E000FD010DC0AA1FBB1FEE1FFF1FA217B307DF
:1025F000E407F50720F0A21BB30BE40BF50B661FF5
:10260000771F881F991F1A9469F7609570958095B8
:1026100090959B01AC01BD01CF010895052E97FB5C
:1026200016F4009407D057FD0DD00E94EC1207FC61
:1026300009D07EF490958095709561957F4F8F4F6E
:102640009F4F089550954095309521953F4F4F4F9E
:102650005F4F0895A29FB001B39FC001A39F01D017
:10266000B29F700D811D1124911D0895EE0FFF1F63
:102670000590F491E02D09940F931F93CF93DF936E
:102680008230910510F482E090E0E0910B03F0912C
:102690000C0320E030E0C0E0D0E023C04081518155
:1026A00048175907A8F04817590761F482819381A8
:1026B000209719F09B838A832EC090930C038093FC
:1026C0000B0329C02115310529F04217530710F0DB
:1026D000A90102C0BE01DF0102811381EF019A014D
:1026E000F8013097D9F62115310509F1281B390B6E
:1026F0002430310590F412968D919C9113976115B9
:10270000710521F0FB019383828304C090930C0335
:1027100080930B03FD01329644C0FD01E20FF31FCD
:1027200081939193225031092D933C933AC020918B
:10273000090330910A03232B41F4209102013091C7
:10274000030130930A032093090320910001309183
:1027500001012115310541F42DB73EB74091040127
:1027600050910501241B350BE0910903F0910A03F8
:10277000E217F307A0F42E1B3F0B2817390778F058
:10278000AC014E5F5F4F2417350748F04E0F5F1FB7
:1027900050930A03409309038193919302C0E0E0B0
:1027A000F0E0CF01DF91CF911F910F910895EF924B
:1027B000FF920F931F93CF93DF93009709F48FC07D
:1027C000DC01129713961C921E921297E0900B0355
:1027D000F0900C03E114F10489F42D913C911197D0
:1027E000280F391F8091090390910A0382179307DC
:1027F00089F5B0930A03A093090371C0E70120E0B3
:1028000030E001C0EA01CA17DB0738F44A815B8176
:102810009E0141155105B1F722C0BC0162507109FA
:10282000FB01D383C28300811181AC01400F511F92
:102830004C175D0761F448815981400F511F4E5F6D
:102840005F4F518340834A815B81538342832115CB
:10285000310529F4B0930C03A0930B0340C0F90198
:10286000B383A283E90169917991C60FD71FAC1791
:10287000BD0779F4DC015E914E91460F571F4E5F04
:102880005F4F5183408312968D919C911397938350
:102890008283A0E0B0E002C0D7017C01F701828111
:1028A00093810097C9F7C701029620813181820F79
:1028B000931F2091090330910A032817390779F4EF
:1028C000109729F410920C0310920B0304C0139676
:1028D0001C921E921297F0920A03E0920903CDB760
:1028E000DEB7E6E00C948115A0E0B0E0EAE7F4E1A1
:1028F0000C945F15EC01009729F4CB010E943C1366
:10290000EC01B8C0DC01A60FB71FFC013297AE176F
:10291000BF0718F4C0E0D0E0ADC0008111810617F8
:102920001707B0F00530110508F4A4C0C8010497DA
:102930008617970708F49EC002501109061B170B53
:102940000D931D9371836083CD010E94D71392C0B4
:102950007B01E01AF10A5C01A00EB11EE0910B03AD
:10296000F0910C03812C912C80E090E04CC0EA1592
:10297000FB05F1F5408151816A0122E0C20ED11CB4
:10298000CE14DF04A8F19A012E193F0979016901DB
:1029900032E0C30ED11C2EEFA22EBB24BA94AC0E93
:1029A000BD1E25E0C216D10478F0428153811396F2
:1029B0005C934E9312971196FC92EE92F5017183FF
:1029C00060833A2F2B2F09C00E5F1F4F040F151F76
:1029D000D5010D931C9332812381009721F0FC01D6
:1029E0003283238347C030930B0320930C0342C0F0
:1029F000808191818816990608F44C0152814381A7
:102A0000CF01E52FF42F309709F0B1CF8091090362
:102A100090910A038A159B05F1F486169706D8F45F
:102A20008091000190910101009741F48DB79EB70C
:102A30002091040130910501821B930BA817B9075F
:102A400008F068CFB0930A03A0930903FE01329700
:102A5000718360830FC0CB010E943C137C010097FF
:102A600009F458CFA801BE010E944015CE010E9472
:102A7000D713E701CE01CDB7DEB7ECE00C947B15A0
:102A8000FB01DC0102C001900D9241505040D8F78B
:102A90000895FB01DC018D91019080190110D9F39B
:102AA000990B0895FB01DC0101900D920020E1F7E4
:102AB00008952F923F924F925F926F927F928F92E2
:102AC0009F92AF92BF92CF92DF92EF92FF920F93BD
:102AD0001F93CF93DF93CDB7DEB7CA1BDB0B0FB6C7
:102AE000F894DEBF0FBECDBF09942A883988488884
:102AF0005F846E847D848C849B84AA84B984C8841A
:102B0000DF80EE80FD800C811B81AA81B981CE0F10
:102B1000D11D0FB6F894DEBF0FBECDBFED010895F5
:102B200010E0C4E8D0E004C0FE010E9438132296F1
:0A2B3000C638D107C9F7F894FFCFAB
:102B3A0000000D03200010000E000403020807061F
:102B4A00053132333435363738392A30231100010A
:102B5A000101FFFF616C6572746134002A00230071
:102B6A00616C657274613300616C65727461320004
:102B7A00616C65727461310031323334003433323E
:102B8A00310000000000A209240E540959097F09E6
:102B9A006D09000000007A09FA09000A0000000025
:102BAA007509EE09F409010203040506070102008A
:0C2BBA00030004050607000102030500EB
:00000001FF
